:020000040800F2
:100000000000022051020008A1020008A10200081D
:10001000A1020008A1020008A102000800000000DF
:10002000000000000000000000000000A102000825
:10003000A102000800000000A1020008A1020008BF
:10004000A1020008A1020008A1020008A102000804
:1000500000000000A1020008A1020008A10200089F
:10006000A1020008A1020008A1020008A1020008E4
:10007000A1020008A1020008A1020008A1020008D4
:10008000A1020008A1020008A1020008A1020008C4
:10009000A1020008A1020008A1020008A1020008B4
:1000A000A1020008A1020008A1020008A1020008A4
:1000B000A1020008A1020008A1020008A102000894
:1000C000A1020008A1020008A1020008A102000884
:1000D000A1020008A1020008A1020008A102000874
:1000E000A1020008A1020008A1020008A102000864
:1000F000A1020008A1020008A1020008A102000854
:10010000A1020008A1020008A1020008A102000843
:10011000A1020008A1020008A1020008A102000833
:10012000A1020008A1020008A1020008A102000823
:10013000A1020008A1020008A1020008A102000813
:10014000A1020008A1020008A1020008A102000803
:10015000A1020008A1020008A1020008A1020008F3
:10016000A1020008A1020008A1020008A1020008E3
:10017000A1020008A1020008A1020008A1020008D3
:10018000A1020008A1020008000000000000000019
:10019000000000000000000000000000000000005F
:0801A000A1020008A102000801
:1001A80010B5054C237833B9044B13B10448AFF3A9
:1001B80000800123237010BD000000200000000013
:1001C8004806000808B5034B1BB103490348AFF3C1
:1001D800008008BD00000000040000204806000858
:1001E80080B483B000AF00237B6002E07B680133FA
:1001F8007B607B68044A9342F8D900BF00BF0C3784
:10020800BD465DF8047B70478FD0030080B584B08D
:1002180000AF0B4B7B6004233B7201237B720223EC
:10022800BB7200233B730023FB723B1D184600F092
:1002380035F80B21034800F0C9F9FFF7D1FFF8E7BB
:1002480000040240000802400D488546AFF30080D4
:100258000C480D490D4A002302E0D458C450043319
:10026800C4188C42F9D30A4A0A4C002301E01360EF
:100278000432A242FBD300F0BFF9FFF7C7FFFEE745
:10028800000002200000002000000020680600088E
:10029800000000201C000020FEE7000080B487B0AA
:1002A80000AF786000237B617B685B79032B20D8E3
:1002B8007B685B791A467B681B795B0002FA03F35B
:1002C8007B617B681B681A687B681B795B0003216C
:1002D80001FA03F3DB4319467B681B680A401A607E
:1002E8007B681B6819687B681B687A690A431A600F
:1002F800CBE07B685B79042B17D14B4BDB687A68C2
:100308001279114601228A401146474A0B43D360AD
:10031800454B9B687A681279114601228A40D2437C
:100328001146414A0B40936035E07B685B79052BA9
:1003380017D13D4B9B687A681279114601228A4091
:100348001146394A0B439360374BDB687A68127958
:10035800114601228A40D2431146334A0B40D360EA
:1003680019E07B685B79062B15D12F4B9B687A685F
:100378001279114601228A4011462B4A0B43936099
:10038800294BDB687A681279114601228A401146A6
:10039800254A0B43D3607B681B799B08FB747B68F9
:1003A8001B7903F00303BB747B681B681F4A9342E5
:1003B8004ED07B681B681E4A934232D07B681B680C
:1003C8001C4A93422BD07B681B681B4A934224D05B
:1003D8007B681B68194A93421DD07B681B68184AC2
:1003E800934216D07B681B68164A93420FD07B68ED
:1003F8001B68154A934208D07B681B68134A9342CE
:1004080001D1082325E0002323E0072321E0062368
:100418001FE005231DE004231BE0032319E002234A
:1004280017E0012315E000BF003C01400000024036
:100438000004024000080240000C02400010024084
:100448000014024000180240001C02400020024034
:1004580000237B745A4B5B6C594A43F480435364C2
:100468007A7CBB7C9B0002FA03F1564AFB7C023380
:1004780042F82310544B1B687A68127911460122FE
:100488008A401146504A0B4313607B689B791A4691
:100498007B681B795B0002FA03F37B617B681B684E
:1004A8009A687B681B795B00032101FA03F3DB433D
:1004B80019467B681B680A409A607B681B689968C4
:1004C8007B681B687A690A439A607B68DB791A46FD
:1004D8007B681B795B0002FA03F37B617B681B680E
:1004E800DA687B681B795B00032101FA03F3DB43BD
:1004F80019467B681B680A40DA607B681B68D96804
:100508007B681B687A690A43DA607B681B7A1A463B
:100518007B681B7902FA03F37B617B681B685A6866
:100528007B681B79194601238B40DB4319467B689E
:100538001B680A405A607B681B6859687B681B689F
:100548007A690A435A607B685B79022B31D17B68F0
:100558001B79DB083B747B681B7903F00703FB738B
:100568007B681B683A7C083253F82210FB7B9B009F
:100578000F2202FA03F3DB4318467B681B683A7CB8
:100588000140083243F822107B681B683A7C083225
:1005980053F822107B685B7A1A46FB7B9B0002FAB1
:1005A80003F318467B681B683A7C0143083243F81A
:1005B800221000BF1C37BD465DF8047B704700BFA2
:1005C8000038024000380140003C014080B483B04C
:1005D80000AF78600B46FB707B685B69FA78012195
:1005E80001FA02F25A407B685A6100BF0C37BD46D7
:1005F8005DF8047B7047000070B50D4D0D4C641B11
:10060800A4100026A64209D10B4D0C4C00F018F896
:10061800641BA4100026A64205D170BD55F8043B02
:1006280098470136EEE755F8043B98470136F2E75C
:1006380060060008600600086006000864060008F6
:10064800F8B500BFF8BC08BC9E467047F8B500BFB7
:08065800F8BC08BC9E46704787
:04066000CD010008C0
:04066400A9010008E0
:04000005080002519C
:00000001FF
