:020000040800F2
:100000000000032001090008F1070008F7070008B5
:10001000FD070008030800080908000800000000A8
:100020000000000000000000000000000F080008B1
:100030001D080008000000002B080008390800080F
:100040005909000859090008590900085909000808
:1000500059090008590900085909000859090008F8
:1000600059090008590900085909000859090008E8
:1000700059090008590900085909000859090008D8
:1000800059090008590900085909000859090008C8
:1000900059090008590900085909000859090008B8
:1000A00059090008590900085909000859090008A8
:1000B0005909000859090008590900085909000898
:1000C0005909000859090008590900085909000888
:1000D0005909000859090008590900085909000878
:1000E0005909000859090008590900085909000868
:1000F0005909000859090008590900085909000858
:100100005909000859090008590900085909000847
:100110005909000859090008590900085909000837
:100120005909000859090008590900085909000827
:0C01300059090008590900085909000885
:10013C0010B5054C237833B9044B13B10448AFF315
:10014C0000800123237010BD14000020000000006B
:10015C001437000808B5034B1BB103490348AFF330
:10016C00008008BD000000001800002014370008B3
:10017C0053B94AB9002908BF00281CBF4FF0FF3102
:10018C004FF0FF3000F070B9ADF1080C6DE904CE02
:10019C0000F006F8DDF804E0DDE9022304B0704756
:1001AC002DE9F047089E0D4604460F46002B4AD118
:1001BC008A42944665D9B2FA82F343B102FA03FC3F
:1001CC00C3F120029F4020FA02F217439C404FEAF1
:1001DC001C4E1FFA8CF5B7FBFEF1220C0EFB1177AF
:1001EC0042EA074201FB05F090420AD91CEB0202DD
:1001FC0001F1FF3780F01C81904240F219810239E5
:10020C006244121AA4B2B2FBFEF00EFB102244EAB6
:10021C00024400FB05F5A5420AD91CEB040400F1CD
:10022C00FF3280F00781A54240F204816444023819
:10023C0040EA0140641B00211EB1DC400023C6E9EA
:10024C000043BDE8F0878B4208D9002E00F0ED800A
:10025C000021C6E900050846BDE8F087B3FA83F132
:10026C00002949D1AB4202D3824200F2F880841AB1
:10027C0065EB030201201746002EE2D0C6E90047C9
:10028C00DFE702B9FFDEB2FA82F3002B40F0908078
:10029C008A1A4FEA1C471FFA8CFE0121B2FBF7F5B4
:1002AC0007FB1520220C42EA00420EFB05F090429F
:1002BC0008D91CEB020205F1FF3802D2904200F281
:1002CC00CB804546121AA4B2B2FBF7F007FB102202
:1002DC0044EA02440EFB00FEA64508D91CEB0404BC
:1002EC0000F1FF3202D2A64500F2BB801046A4EB0F
:1002FC000E0440EA05409FE7C1F120078B4022FA2B
:10030C0007FC4CEA030C05FA01F420FA07F3FD4054
:10031C004FEA1C492343B5FBF9F81FFA8CFE09FB85
:10032C0018551C0C44EA054408FB0EF5A54202FACC
:10033C0001F200FA01F00BD91CEB040408F1FF3AAE
:10034C0080F08880A54240F28580A8F102086444C0
:10035C00641B9DB2B4FBF9F309FB134445EA044456
:10036C0003FB0EFEA64508D91CEB040403F1FF3574
:10037C006CD2A6456AD9023B644443EA0843A3FB0A
:10038C000295A4EB0E04AC42C846AE4656D353D0ED
:10039C0056B1B0EB080264EB0E0404FA07F7CA403E
:1003AC00CC401743C6E9007418460021BDE8F0871D
:1003BC00C3F1200102FA03FC20FA01F225FA01F143
:1003CC009D402A434FEA1C471FFA8CFEB1FBF7F005
:1003DC0007FB1015110C41EA054100FB0EF58D428F
:1003EC0004FA03F408D91CEB010100F1FF382FD2F9
:1003FC008D422DD902386144491B92B2B1FBF7F5FD
:10040C0007FB151142EA014205FB0EF1914208D996
:10041C001CEB020205F1FF3816D2914214D9023DB1
:10042C006244521A45EA004138E73146304608E743
:10043C003946E6E61046FBE64845A9D2B9EB020878
:10044C0065EB0C0E013BA3E74546EAE72B4694E728
:10045C004046D1E7D0467BE7023D624432E708468E
:10046C000AE76444023842E7704700BF80B485B0A5
:10047C0000AF78604FF0B043DA6C4FF0B0417B685E
:10048C001343CB644FF0B043DA6C7B681340FB60D2
:10049C00FB6800BF1437BD465DF8047B7047000055
:1004AC0080B500AF00F054FA00F024F800F078F8B2
:1004BC0000F0E8F800F098F800F08FF820210C48D4
:1004CC0000F05CFD4FF47A7000F0C8FA0121084886
:1004DC0000F054FD4FF47A7000F0C0FA0221044889
:1004EC0000F04CFD4FF47A7000F0B8FAE6E700BF6C
:1004FC000004004880B59AB000AF07F120034822F1
:10050C000021184603F0D4F83B1D00221A605A60F3
:10051C009A60DA601A615A619A61204B1B6823F465
:10052C00C0631E4A43F4007313601C4B1B6803F436
:10053C00C0633B603B6803233B624FF480337B62B8
:10054C004FF48073FB6240233B630023FB6407F191
:10055C002003184601F0C0F80346002B01D000F030
:10056C00BDF86F237B600223BB600023FB6000237C
:10057C003B6100237B610023BB610023FB613B1DBE
:10058C000121184601F01CFC0346002B01D000F0A1
:10059C00A5F800BF6837BD4680BD00BF00040058F9
:1005AC0080B594B000AF3B4650220021184603F0B2
:1005BC007FF84FF400533B600023BB640023FB64C3
:1005CC003B46184602F039F80346002B01D000F0E8
:1005DC0085F800BF5037BD4680BD80B400AF00BF6A
:1005EC00BD465DF8047B704780B500AF234B244AB1
:1005FC001A60224B4FF4E1325A60204B4FF080527C
:10060C009A601E4B0022DA601C4B00221A611B4BB5
:10061C000C225A61194B00229A61184B0022DA61A4
:10062C00164B00221A62154B00225A62134B002201
:10063C009A62124802F0A8FA0346002B01D000F08F
:10064C004DF800210D4802F069FF0346002B01D044
:10065C0000F044F80021094802F09EFF0346002BED
:10066C0001D000F03BF8054802F01FFF0346002BB9
:10067C0001D000F033F800BF80BD00BF3000002077
:10068C000038014080B586B000AF3B1D00221A60D7
:10069C005A609A60DA601A610420FFF7E7FE0220C4
:1006AC00FFF7E4FE0120FFF7E1FE002223210A48B8
:1006BC0000F04CFC23237B600123BB600023FB6018
:1006CC0000233B613B1D1946034800F0CFFA00BFE5
:1006DC001837BD4680BD00BF0004004880B400AF91
:1006EC0072B600BFFEE780B485B000AF78604FF003
:1006FC00B043DA6C4FF0B0417B681343CB644FF0DE
:10070C00B043DA6C7B681340FB60FB6800BF1437A6
:10071C00BD465DF8047B704780B485B000AF78604F
:10072C004FF0B0431A6E4FF0B0417B6813430B6629
:10073C004FF0B0431A6E7B681340FB60FB6800BF40
:10074C001437BD465DF8047B704780B400AF00BF22
:10075C00BD465DF8047B704780B59CB000AF7860F7
:10076C0007F15C0300221A605A609A60DA601A6121
:10077C0007F10C0350220021184602F099FF7B6808
:10078C001B68164A934224D10123FB6000237B6231
:10079C0007F10C03184601F050FF0346002B01D063
:1007AC00FFF79CFF4FF48040FFF7B6FF0220FFF7E6
:1007BC009AFFC023FB6502233B6601237B66002363
:1007CC00BB660723FB6607F15C031946044800F07F
:1007DC004DFA00BF7037BD4680BD00BF00380140E8
:1007EC000004004880B400AFFEE780B400AFFEE721
:1007FC0080B400AFFEE780B400AFFEE780B400AF7A
:10080C00FEE780B400AF00BFBD465DF8047B7047C7
:10081C0080B400AF00BFBD465DF8047B704780B468
:10082C0000AF00BFBD465DF8047B704780B500AFDC
:10083C0000F0E8F800BF80BD80B400AF244BD3F8C3
:10084C008830234A43F47003C2F888304FF0B04329
:10085C001B684FF0B04243F0010313604FF0B043FC
:10086C004FF4E0229A604FF0B0431A684FF0B04159
:10087C00184B13400B604FF0B043D3F894304FF04B
:10088C00B04223F00503C2F894304FF0B043D3F8D4
:10089C0098304FF0B04223F00103C2F898304FF07B
:1008AC00B0430D4ADA604FF0B0430B4A1A614FF077
:1008BC00B0431B684FF0B04223F4802313604FF019
:1008CC00B04300229A6100BFBD465DF8047B7047BF
:1008DC0000ED00E0FBFEF6FA00100422D458C450E0
:1008EC000433C4188C42F9D3704703600430884237
:1008FC00FBD370470C488546FFF79EFF0B480C490D
:10090C000C4A0023FFF7EDFF0B480C490C4A00235F
:10091C00FFF7E7FF0B480C490023FFF7E8FF02F055
:10092C00CFFEFFF7BDFDFEE700000320080000200E
:10093C0014000020303800080000032000000320C1
:10094C003C38000814000020C8000020FEE700001E
:10095C0080B582B000AF0023FB710C4B1B680B4AB7
:10096C0043F480731360032000F04EF9002000F074
:10097C000FF80346002B02D00123FB7101E0FFF7B7
:10098C00E4FEFB7918460837BD4680BD0040005890
:10099C0080B584B000AF78600023FB73174B1B78D5
:1009AC00002B24D001F0B8FB0246144B1B781946DF
:1009BC004FF47A73B3FBF1F3B2FBF3F3184600F088
:1009CC0048F90346002B0FD17B680F2B09D8002266
:1009DC0079684FF0FF3000F022F9094A7B68136008
:1009EC0007E00123FB7304E00123FB7301E0012307
:1009FC00FB73FB7B18461037BD4680BD10000020F2
:100A0C000C00002080B400AF064B1B781A46064B36
:100A1C001B681344044A136000BFBD465DF8047B99
:100A2C00704700BF10000020C400002080B400AF4D
:100A3C00034B1B681846BD465DF8047B704700BF2E
:100A4C00C400002080B400AF034B1B681846BD46A1
:100A5C005DF8047B704700BF0C00002080B584B0AB
:100A6C0000AF7860FFF7E2FFB8607B68FB60FB6863
:100A7C00B3F1FF3F05D00A4B1B781A46FB681344B1
:100A8C00FB6000BFFFF7D2FF0246BB68D31AFA68BF
:100A9C009A42F7D800BF00BF1037BD4680BD00BFDB
:100AAC001000002080B485B000AF78607B6803F044
:100ABC000703FB600C4BDB68BB60BA684FF6FF03A7
:100ACC001340BB60FB681A02BB68134343F0BF635F
:100ADC0043F40033BB60044ABB68D36000BF1437D7
:100AEC00BD465DF8047B704700ED00E080B400AFBC
:100AFC00044BDB681B0A03F007031846BD465DF880
:100B0C00047B704700ED00E080B483B000AF034677
:100B1C003960FB7197F90730002B0ADB3B68DAB2BE
:100B2C000C4997F907301201D2B20B4483F8002319
:100B3C000AE03B68DAB20849FB7903F00F03043B87
:100B4C001201D2B20B441A7600BF0C37BD465DF8C9
:100B5C00047B704700E100E000ED00E080B489B058
:100B6C0000AFF860B9607A60FB6803F00703FB61C3
:100B7C00FB69C3F10703042B28BF0423BB61FB698A
:100B8C000433062B02D9FB69033B00E000237B6195
:100B9C004FF0FF32BB6902FA03F3DA43BB681A4029
:100BAC007B699A404FF0FF317B6901FA03F3D9431B
:100BBC007B680B40134318462437BD465DF8047B15
:100BCC007047000080B582B000AF78607B68013B55
:100BDC00B3F1807F01D301230FE00A4A7B68013B0C
:100BEC0053600F214FF0FF30FFF78EFF054B0022B3
:100BFC009A60044B07221A60002318460837BD463A
:100C0C0080BD00BF10E000E080B582B000AF78601E
:100C1C007868FFF747FF00BF0837BD4680BD80B539
:100C2C0086B000AF0346B9607A60FB73FFF75EFFD6
:100C3C0078617A68B9687869FFF790FF024697F98E
:100C4C000F3011461846FFF75FFF00BF1837BD463F
:100C5C0080BD80B582B000AF78607868FFF7B2FFD6
:100C6C00034618460837BD4680BD000080B487B0E7
:100C7C0000AF7860396000237B614CE13B681A68F7
:100C8C0001217B6901FA03F31340FB60FB68002B25
:100C9C0000F03E813B685B6803F00303012B05D039
:100CAC003B685B6803F00303022B30D17B689B68C5
:100CBC003B617B695B00032202FA03F3DB433A6975
:100CCC0013403B613B68DA687B695B0002FA03F313
:100CDC003A6913433B617B683A699A607B685B684D
:100CEC003B6101227B6902FA03F3DB433A6913404F
:100CFC003B613B685B681B0903F001027B6902FAEC
:100D0C0003F33A6913433B617B683A695A603B6869
:100D1C005B6803F00303032B17D07B68DB683B6134
:100D2C007B695B00032202FA03F3DB433A6913404D
:100D3C003B613B689A687B695B0002FA03F33A6992
:100D4C0013433B617B683A69DA603B685B6803F08C
:100D5C000303022B23D17B69DA087B68083253F832
:100D6C0022303B617B6903F007039B000F2202FAE0
:100D7C0003F3DB433A6913403B613B681A697B69B7
:100D8C0003F007039B0002FA03F33A6913433B6138
:100D9C007B69DA087B680832396943F822107B6872
:100DAC001B683B617B695B00032202FA03F3DB43A4
:100DBC003A6913403B613B685B6803F003027B6953
:100DCC005B0002FA03F33A6913433B617B683A69AF
:100DDC001A603B685B6803F44033002B00F098808A
:100DEC00544A7B699B08023352F823303B617B6980
:100DFC0003F003039B000F2202FA03F3DB433A696F
:100E0C0013403B617B68B3F1904F19D07B684A4A21
:100E1C00934213D07B68494A93420DD07B68484A71
:100E2C00934207D07B68474A934201D1042308E0E0
:100E3C00072306E0032304E0022302E0012300E081
:100E4C0000237A6902F00302920093403A6913433B
:100E5C003B6138497B699B0802333A6941F823208E
:100E6C00394B1B683B61FB68DB433A6913403B61C0
:100E7C003B685B6803F48013002B03D03A69FB6872
:100E8C0013433B61304A3B6913602F4B5B683B61FA
:100E9C00FB68DB433A6913403B613B685B6803F4D6
:100EAC000013002B03D03A69FB6813433B61264ABD
:100EBC003B695360244BD3F880303B61FB68DB43C8
:100ECC003A6913403B613B685B6803F48033002B49
:100EDC0003D03A69FB6813433B611B4A3B69C2F878
:100EEC008030194BD3F884303B61FB68DB433A69A3
:100EFC0013403B613B685B6803F40033002B03D069
:100F0C003A69FB6813433B610F4A3B69C2F8843072
:100F1C007B6901337B613B681A687B6922FA03F3B6
:100F2C00002B7FF4ABAE00BF00BF1C37BD465DF895
:100F3C00047B704700000140000400480008004892
:100F4C00000C0048001000480008005880B483B022
:100F5C0000AF78600B467B8013467B707B78002B50
:100F6C0003D07A887B689A6102E07A887B689A62FF
:100F7C0000BF0C37BD465DF8047B704780B485B06C
:100F8C0000AF78600B467B807B685B69FB607A887E
:100F9C00FB6813401A04FB68D9437B880B401A4347
:100FAC007B689A6100BF1437BD465DF8047B7047BF
:100FBC0080B400AF054B1B68044A43F48073136084
:100FCC0000BFBD465DF8047B704700BF00040058AD
:100FDC0080B400AF044B1B6803F4C0631846BD46D5
:100FEC005DF8047B704700BF0004005880B400AF6C
:100FFC004FF0B0431B6803F48013B3F5801F01D18D
:10100C00012300E000231846BD465DF8047B7047C1
:10101C0080B400AF4FF0B0431B684FF0B04243F4C4
:10102C008033136000BFBD465DF8047B704780B40D
:10103C0000AF4FF0B0431B684FF0B04223F4803345
:10104C00136000BFBD465DF8047B704780B400AFF1
:10105C004FF0B0431B6803F40033B3F5003F01D1EC
:10106C00012300E000231846BD465DF8047B704761
:10107C0080B400AF4FF0B0431B684FF0B04243F464
:10108C008073136000BFBD465DF8047B704780B46D
:10109C0000AF4FF0B0431B684FF0B04223F48073A5
:1010AC00136000BFBD465DF8047B704780B400AF91
:1010BC004FF0B0431B6803F48063B3F5806F01D12C
:1010CC00012300E000231846BD465DF8047B704701
:1010DC0080B483B000AF78604FF0B0435B6823F00E
:1010EC00FE427B681B064FF0B04113434B6000BFC0
:1010FC000C37BD465DF8047B704780B400AF4FF0F1
:10110C00B043D3F898304FF0B04243F00103C2F82B
:10111C00983000BFBD465DF8047B704780B400AFCB
:10112C004FF0B043D3F898304FF0B04223F00103A6
:10113C00C2F8983000BFBD465DF8047B704780B4A0
:10114C0000AF4FF0B043D3F8983003F00203022BFA
:10115C0001D1012300E000231846BD465DF8047B55
:10116C00704780B400AF4FF0B043D3F890304FF0DD
:10117C00B04243F00103C2F8903000BFBD465DF8A9
:10118C00047B704780B400AF4FF0B043D3F890307D
:10119C004FF0B04223F00103C2F8903000BFBD46BF
:1011AC005DF8047B704780B400AF4FF0B043D3F8C8
:1011BC0090304FF0B04243F00403C2F8903000BFBF
:1011CC00BD465DF8047B704780B400AF4FF0B04370
:1011DC00D3F890304FF0B04223F00403C2F89030B3
:1011EC0000BFBD465DF8047B704780B400AF4FF084
:1011FC00B043D3F8903003F00203022B01D101234A
:10120C0000E000231846BD465DF8047B704780B4AF
:10121C0000AF4FF0B043D3F894304FF0B04243F0EE
:10122C000103C2F8943000BFBD465DF8047B7047E3
:10123C0080B400AF4FF0B043D3F894304FF0B042CD
:10124C0023F00103C2F8943000BFBD465DF8047B67
:10125C00704780B400AF4FF0B043D3F8943003F034
:10126C000203022B01D1012300E000231846BD46E6
:10127C005DF8047B704780B400AF4FF0B043D3F8F7
:10128C0094304FF0B04243F00403C2F8943000BFE6
:10129C00BD465DF8047B704780B400AF4FF0B0439F
:1012AC00D3F894304FF0B04223F00403C2F89430DA
:1012BC0000BFBD465DF8047B704780B400AF4FF0B3
:1012CC00B043D3F8943003F00803082B01D1012369
:1012DC0000E000231846BD465DF8047B704780B4DF
:1012EC0083B000AF78604FF0B043D3F8943023F460
:1012FC0070627B681B024FF0B0411343C1F894300D
:10130C0000BF0C37BD465DF8047B704780B400AF5E
:10131C004FF0B0431B684FF0B04243F00103136031
:10132C0000BFBD465DF8047B704780B400AF4FF042
:10133C00B0431B684FF0B04223F00103136000BFB1
:10134C00BD465DF8047B704780B400AF4FF0B043EE
:10135C001B6803F00203022B01D1012300E00023E0
:10136C001846BD465DF8047B704780B483B000AF6F
:10137C0078604FF0B0431B6823F0F0024FF0B0419F
:10138C007B6813430B6000BF0C37BD465DF8047BD4
:10139C00704780B483B000AF4FF0B0431B6803F0CC
:1013AC00F0037B607B68B02B01D9B0237B607B683A
:1013BC0018460C37BD465DF8047B704780B483B08B
:1013CC0000AF78604FF0B0435B6823F47F427B68DA
:1013DC001B024FF0B04113434B6000BF0C37BD46AE
:1013EC005DF8047B704780B483B000AF78604FF039
:1013FC00B0439B6823F003024FF0B0417B6813436A
:10140C008B6000BF0C37BD465DF8047B704780B421
:10141C0000AF4FF0B0439B6803F00C031846BD4679
:10142C005DF8047B704780B483B000AF78604FF0F8
:10143C00B0439B6823F0F0024FF0B0417B6813433C
:10144C008B6000BF0C37BD465DF8047B704780B4E1
:10145C0083B000AF78604FF0B043D3F8083123F07D
:10146C00F0024FF0B0417B681343C1F8083100BF64
:10147C000C37BD465DF8047B704780B483B000AF79
:10148C0078604FF0B043D3F8083123F00F027B683B
:10149C001B094FF0B0411343C1F8083100BF0C37A2
:1014AC00BD465DF8047B704780B483B000AF7860B4
:1014BC004FF0B0439B6823F4E0624FF0B0417B687F
:1014CC0013438B6000BF0C37BD465DF8047B70473F
:1014DC0080B483B000AF78604FF0B0439B6823F4C6
:1014EC0060524FF0B0417B6813438B6000BF0C37E8
:1014FC00BD465DF8047B704780B400AF4FF0B0433D
:10150C009B6803F0F0031846BD465DF8047B7047FA
:10151C0080B400AF4FF0B043D3F808311B0103F097
:10152C00F0031846BD465DF8047B704780B400AFED
:10153C004FF0B0439B6803F4E0631846BD465DF87A
:10154C00047B704780B400AF4FF0B0439B6803F44A
:10155C0060531846BD465DF8047B704780B400AFFD
:10156C004FF0B0431B684FF0B04243F080731360F0
:10157C0000BFBD465DF8047B704780B400AF4FF0F0
:10158C00B0431B684FF0B04223F08073136000BF70
:10159C00BD465DF8047B704780B400AF4FF0B0439C
:1015AC001B6803F00073B3F1007F01D1012300E04D
:1015BC0000231846BD465DF8047B704780B400AF2D
:1015CC004FF0B043DB681B0A03F07F031846BD469F
:1015DC005DF8047B704780B400AF4FF0B043DB681C
:1015EC0003F060431846BD465DF8047B704780B439
:1015FC0000AF4FF0B043DB6803F070031846BD46F4
:10160C005DF8047B704780B400AF4FF0B043DB68EB
:10161C0003F003031846BD465DF8047B704780B4A5
:10162C0000AF4FF0B0439B6803F48033B3F5803FB9
:10163C0001D1012300E000231846BD465DF8047B70
:10164C00704780B400AF4FF0B043D3F8083103F4C7
:10165C000033B3F5003F01D1012300E0002318460D
:10166C00BD465DF8047B704780B400AF4FF0B043CB
:10167C00D3F8083103F48033B3F5803F01D1012353
:10168C0000E000231846BD465DF8047B704780B42B
:10169C0000AF4FF0B0439B6803F40033B3F5003F49
:1016AC0001D1012300E000231846BD465DF8047B00
:1016BC00704780B400AF4FF0B0439B6803F48023B5
:1016CC00B3F5802F01D1012300E000231846BD465D
:1016DC005DF8047B7047000090B58DB000AF78606A
:1016EC007B68002B01D1012363E37B681B6803F04B
:1016FC002003002B00F08D80FFF789FEF862FFF7C6
:10170C0082FFB862FB6A002B05D0FB6A0C2B47D119
:10171C00BB6A012B44D17B68DB69002B01D101230F
:10172C0047E37B685C6AFFF734FE03469C4214D99E
:10173C007B685B6A184600F02FFD0346002B01D036
:10174C00012336E37B685B6A1846FFF70EFE7B6865
:10175C001B6A1846FFF732FE13E07B685B6A18467B
:10176C00FFF703FE7B681B6A1846FFF727FE7B68B2
:10177C005B6A184600F010FD0346002B01D00123D4
:10178C0017E300F0C9FC0346A44A1360A44B1B6882
:10179C001846FFF7FDF80346002B39D0012308E368
:1017AC007B68DB69002B1ED0FFF7B0FDFFF73EF91D
:1017BC00786208E0FFF73AF902467B6AD31A022BEB
:1017CC0001D90323F5E2FFF7BFFD0346002BF1D04F
:1017DC007B685B6A1846FFF7C8FD7B681B6A184676
:1017EC00FFF7ECFD15E0FFF7A0FDFFF71FF978629E
:1017FC0008E0FFF71BF902467B6AD31A022B01D9CA
:10180C000323D6E2FFF7A0FD0346002BF1D100E045
:10181C0000BF7B681B6803F00103002B47D0FFF768
:10182C00F6FD3862FFF7EFFEF8613B6A082B05D036
:10183C003B6A0C2B08D1FB69032B05D17B685B68D9
:10184C00002B34D10123B4E27B685B68B3F5803F95
:10185C0002D1FFF7DDFB01E0FFF7E9FB7B685B687A
:10186C00002B12D0FFF7E2F8786208E0FFF7DEF801
:10187C0002467B6AD31A642B01D9032399E2FFF742
:10188C00E5FB0346002BF1D011E0FFF7CFF87862AF
:10189C0008E0FFF7CBF802467B6AD31A642B01D918
:1018AC00032386E2FFF7D2FB0346002BF1D17B68C2
:1018BC001B6803F00203002B4CD0FFF7A8FDB861A6
:1018CC00FFF7A1FE7861BB69042B05D0BB690C2B1B
:1018DC000ED17B69022B0BD17B68DB68002B01D10D
:1018EC00012366E27B681B691846FFF7F1FB31E0C8
:1018FC007B68DB68002B19D0FFF7BAFBFFF796F873
:10190C00786208E0FFF792F802467B6AD31A022B42
:10191C0001D903234DE2FFF7C9FB0346002BF1D09D
:10192C007B681B691846FFF7D3FB13E0FFF7AFFB8F
:10193C00FFF77CF8786208E0FFF778F802467B6ADC
:10194C00D31A022B01D9032333E2FFF7AFFB034673
:10195C00002BF1D17B681B6803F00803002B06D128
:10196C007B681B6803F01003002B00F0A3807B68DE
:10197C005B69002B76D07B681B6803F01003002B8F
:10198C0046D0FFF766FC0346002B13D1FFF73FFC54
:10199C00FFF74CF8786208E0FFF748F802467B6ADC
:1019AC00D31A022B01D9032303E2FFF752FC03469F
:1019BC00002BF1D0FFF75FFCFFF738F8786208E0F6
:1019CC00FFF734F802467B6AD31A032B01D90323A1
:1019DC00EFE1FFF772FC0346002BF1D07B689B69AB
:1019EC001846FFF77CFCFFF723FCFFF71FF8786223
:1019FC0008E0FFF71BF802467B6AD31A022B01D9C9
:101A0C000323D6E1FFF725FC0346002BF1D151E06F
:101A1C00FFF7FDFBFFF70AF878620CE008000020E6
:101A2C000C000020FFF702F802467B6AD31A022B47
:101A3C0001D90323BDE1FFF70CFC0346002BF1D0C9
:101A4C00FFF72AFC08E0FEF7F1FF02467B6AD31A87
:101A5C00032B01D90323ACE1FFF72FFC0346002B2A
:101A6C00F1D127E0FFF718FCFEF7E0FF786208E001
:101A7C00FEF7DCFF02467B6AD31A032B01D9032342
:101A8C0097E1FFF71AFC0346002BF1D1FFF7D0FBCF
:101A9C00FEF7CCFF786208E0FEF7C8FF02467B6ACF
:101AAC00D31A022B01D9032383E1FFF7D2FB0346A0
:101ABC00002BF1D17B681B6803F00403002B5BD077
:101ACC00A74B1B6803F48073002B14D1FFF770FA3B
:101ADC00FEF7ACFF786208E0FEF7A8FF02467B6ACF
:101AEC00D31A022B01D9032363E19D4B1B6803F42A
:101AFC008073002BF0D07B689B68012B02D1FFF721
:101B0C0030FB0CE07B689B68052B04D1FFF74BFB8B
:101B1C00FFF727FB03E0FFF735FBFFF755FB7B686F
:101B2C009B68002B14D0FEF781FF78620AE0FEF769
:101B3C007DFF02467B6AD31A41F28832934201D967
:101B4C00032336E1FFF751FB0346002BEFD013E0E4
:101B5C00FEF76CFF78620AE0FEF768FF02467B6ACC
:101B6C00D31A41F28832934201D9032321E1FFF7C2
:101B7C003CFB0346002BEFD17B681B6803F0400352
:101B8C00002B2CD07B689B6A002B14D0FFF7B5FA86
:101B9C00FEF74CFF786208E0FEF748FF02467B6ACE
:101BAC00D31A022B01D9032303E1FFF7C8FA03462A
:101BBC00002BF1D013E0FFF7B1FAFEF737FF786294
:101BCC0008E0FEF733FF02467B6AD31A022B01D9D9
:101BDC000323EEE0FFF7B3FA0346002BF1D17B6849
:101BEC00DB6A002B00F0E480FFF711FC38614FF04A
:101BFC00B043DB68FB607B68DB6A022B40F0B4808F
:101C0C00FB6803F003027B681B6B9A4223D1FB68D1
:101C1C0003F070027B685B6B9A421CD1FB681B0A59
:101C2C0003F07F027B689B6B9A4214D1FB6803F430
:101C3C0078127B68DB6B9A420DD1FB6803F0606213
:101C4C007B681B6C9A4206D1FB6803F060427B6890
:101C5C005B6C9A425DD03B690C2B58D04FF0B04373
:101C6C001B6803F08063002B01D00123A1E0FFF778
:101C7C0084FCFEF7DBFE786208E0FEF7D7FE024636
:101C8C007B6AD31A022B01D9032392E04FF0B043A5
:101C9C001B6803F00073002BEFD14FF0B043DA68F0
:101CAC00304B13407A68116B7A68526B11437A6827
:101CBC00926B120211437A68D26B11437A68126CE0
:101CCC0011437A68526C0A434FF0B0411343CB6016
:101CDC00FFF744FC4FF0B043DB684FF0B04243F0E9
:101CEC008053D360FEF7A2FE786208E0FEF79EFEFA
:101CFC0002467B6AD31A022B01D9032359E04FF019
:101D0C00B0431B6803F00073002BEFD050E00123AD
:101D1C004FE04FF0B0431B6803F00073002B47D12A
:101D2C00FFF71CFC4FF0B043DB684FF0B04243F0C0
:101D3C008053D360FEF77AFE786208E0FEF776FEF9
:101D4C0002467B6AD31A022B01D9032331E04FF0F0
:101D5C00B0431B6803F00073002BEFD028E000BFEA
:101D6C00000400588C80C1113B690C2B1ED0FFF76E
:101D7C0004FCFEF75BFE786208E0FEF757FE0246B5
:101D8C007B6AD31A022B01D9032312E04FF0B04324
:101D9C001B6803F00073002BEFD14FF0B043DA68EF
:101DAC004FF0B041054B1340CB6001E0012300E044
:101DBC00002318463437BD4690BD00BFFCFFFEEE35
:101DCC0080B584B000AF786039607B68002B01D19E
:101DDC0001232DE1984B1B6803F007033A689A42E4
:101DEC001BD9954B1B6823F0070293493B6813439F
:101DFC000B60FEF71BFEF86008E0FEF717FE0246CC
:101E0C00FB68D31A022B01D9032311E18A4B1B68FF
:101E1C0003F007033A689A42EFD17B681B6803F022
:101E2C000203002B16D07B689B681846FFF7FBFA61
:101E3C00FEF7FCFDF86008E0FEF7F8FD0246FB68D3
:101E4C00D31A022B01D90323F2E0FFF7E8FB034678
:101E5C00002BF1D07B681B6803F02003002B16D0FD
:101E6C007B685B691846FFF7F2FAFEF7DFFDF86056
:101E7C0008E0FEF7DBFD0246FB68D31A022B01D902
:101E8C000323D5E0FFF7DDFB0346002BF1D07B6885
:101E9C001B6803F04003002B16D07B689B69184627
:101EAC00FFF7EBFAFEF7C2FDF86008E0FEF7BEFDA7
:101EBC000246FB68D31A022B01D90323B8E0FFF7C3
:101ECC00D3FB0346002BF1D07B681B6803F00403A3
:101EDC00002B16D07B68DB681846FFF7E5FAFEF797
:101EEC00A5FDF86008E0FEF7A1FD0246FB68D31AD9
:101EFC00022B01D903239BE0FFF7C9FB0346002B00
:101F0C00F1D07B681B6803F00803002B17D07B68AB
:101F1C001B69DB001846FFF7DBFAFEF787FDF8605C
:101F2C0008E0FEF783FD0246FB68D31A022B01D9A9
:101F3C0003237DE0FFF7BDFB0346002BF1D07B684C
:101F4C001B6803F00103002B43D07B685B68022BFA
:101F5C0006D1FFF77BF80346002B1ED1012367E067
:101F6C007B685B68032B06D1FFF716FB0346002B3F
:101F7C0013D101235CE07B685B68002B06D1FFF773
:101F8C00E3F90346002B08D1012351E0FFF78EF84B
:101F9C000346002B01D101234AE07B685B6818469D
:101FAC00FFF721FAFEF742FDF8600AE0FEF73EFD6E
:101FBC000246FB68D31A41F28832934201D90323BB
:101FCC0036E0FFF724FA02467B685B689B009A4276
:101FDC00ECD1194B1B6803F007033A689A421BD2E9
:101FEC00154B1B6823F0070213493B6813430B6026
:101FFC00FEF71CFDF86008E0FEF718FD0246FB68D2
:10200C00D31A022B01D9032312E00B4B1B6803F0EC
:10201C0007033A689A42EFD100F07EF80346074A6C
:10202C001360FEF70FFD03461846FEF7B1FC03469E
:10203C0018461037BD4680BD0040005808000020EF
:10204C0090B585B000AFFFF7E2F978607B68002BA4
:10205C000AD1FFF79EF903461B0903F00F032B4A25
:10206C0052F82330FB604BE07B68042B02D1284BE9
:10207C00FB6045E07B68082B0AD1FEF7B7FF0346EF
:10208C00012B02D1224BFB603AE0224BFB6037E084
:10209C00FFF7B9FA38603B68022B03D03B68032B7F
:1020AC0003D00DE01A4BBB6015E0FEF79FFF034613
:1020BC00012B02D1164BBB600DE0164BBB600AE046
:1020CC00FFF767F903461B0903F00F030F4A52F899
:1020DC002330BB6000BFFFF771FA0246BB6803FBFD
:1020EC0002F4FFF784FA03461B090133B4FBF3F443
:1020FC00FFF771FA03465B0F0133B4FBF3F3FB609C
:10210C00FB6818461437BD4690BD00BFB8370008B1
:10211C000024F4000048E80198B500AFFFF790FFE9
:10212C000446FFF7E9F903461B0903F00F03034AC2
:10213C0052F82330B4FBF3F3184698BD5837000817
:10214C0098B500AFFFF7E8FF0446FFF7EFF9034639
:10215C001B0A03F00703044A52F8233003F01F0351
:10216C0024FA03F3184698BD9837000898B500AFC9
:10217C00FFF7D2FF0446FFF7E5F90346DB0A03F04D
:10218C000703044A52F8233003F01F0324FA03F325
:10219C00184698BD9837000890B585B000AF7860A8
:1021AC007B68B02B03D9154BDB6AFB6007E07B68BF
:1021BC001B0903F00F03114A52F82330FB60FFF7A1
:1021CC00A7F903461B0903F00F030D4A52F82330FD
:1021DC00FA68B2FBF3F3BB60BB680A4AA2FB0323A9
:1021EC009C0CFEF7F5FE03461946204600F00CF851
:1021FC00034618461437BD4690BD00BFB8370008DB
:10220C005837000883DE1B4390B593B000AF78605D
:10221C003960374B07F128040FCB84E80F00354A9F
:10222C0007F11C0307CA83E80700334B07F10C04C2
:10223C000FCB84E80F0000237B643B68B3F5007F71
:10224C001AD100233B6413E03B6C9B0048333B44A6
:10225C0053F8203C7A689A4207D83B6C9B00483371
:10226C003B4453F83C3C7B6420E03B6C01333B64C7
:10227C003B6C032BE8D919E00023FB6313E0FB6BE9
:10228C009B0048333B4453F82C3C7A689A4207D85D
:10229C00FB6B9B0048333B4453F83C3C7B6405E0B0
:1022AC00FB6B0133FB63FB6B022BE8D9134B1B68F5
:1022BC0023F0070211497B6C13430B60FEF7B6FB4E
:1022CC00B86308E0FEF7B2FB0246BB6BD31A022BD5
:1022DC0001D9032307E0094B1B6803F007037A6C51
:1022EC009A42EFD1002318464C37BD4690BD00BF33
:1022FC002C3700083C3700084837000800400058CD
:10230C0080B400AF4FF0B043D3F8903003F001032A
:10231C00012B01D1012300E000231846BD465DF8D6
:10232C00047B704780B400AF4FF0B043D3F89030CB
:10233C0003F00203022B01D1012300E00023184615
:10234C00BD465DF8047B704780B483B000AF786005
:10235C004FF0B043D3F8943023F440424FF0B041E7
:10236C007B681343C1F8943000BF0C37BD465DF851
:10237C00047B704780B483B000AF78604FF0B043FB
:10238C005B6A23F003024FF0B0417B6813434B624E
:10239C0000BF0C37BD465DF8047B704780B483B03A
:1023AC0000AF78604FF0B0435B6A23F030024FF01F
:1023BC00B0417B6813434B6200BF0C37BD465DF8E0
:1023CC00047B704780B483B000AF78604FF0B043AB
:1023DC00D3F8883023F003024FF0B0417B681343ED
:1023EC00C1F8883000BF0C37BD465DF8047B7047E0
:1023FC0080B483B000AF78604FF0B043D3F888302E
:10240C0023F440624FF0B0417B681343C1F888302D
:10241C0000BF0C37BD465DF8047B704780B483B0B9
:10242C0000AF78604FF0B043D3F888207B681B096D
:10243C0003F47F23DB431A407B681B0103F47F23E7
:10244C004FF0B0411343C1F8883000BF0C37BD4684
:10245C005DF8047B704780B483B000AF78604FF0B8
:10246C00B043D3F888207B681B0C1B04DB431A4059
:10247C007B681B044FF0B0411343C1F8883000BF98
:10248C000C37BD465DF8047B704780B483B000AF59
:10249C0078604FF0B043D3F8883023F440024FF00B
:1024AC00B0417B681343C1F8883000BF0C37BD4680
:1024BC005DF8047B704780B483B000AF78604FF058
:1024CC00B043D3F8883023F040424FF0B0417B68E2
:1024DC001343C1F8883000BF0C37BD465DF8047B50
:1024EC00704780B483B000AF78604FF0B043D3F83E
:1024FC00883023F040624FF0B0417B681343C1F841
:10250C00883000BF0C37BD465DF8047B704780B542
:10251C0082B000AF78607868FFF7E3FF00BF083740
:10252C00BD4680BD80B483B000AF78604FF0B0433F
:10253C00D3F8883023F040524FF0B0417B681343FE
:10254C00C1F8883000BF0C37BD465DF8047B70477E
:10255C0080B483B000AF78604FF0B043D3F89030C4
:10256C0023F440724FF0B0417B681343C1F89030B4
:10257C0000BF0C37BD465DF8047B704780B400AFDC
:10258C004FF0B043D3F8903003F440731846BD4677
:10259C005DF8047B704780B400AF4FF0B043D3F8C4
:1025AC0090304FF0B04243F48033C2F8903000BF0B
:1025BC00BD465DF8047B704780B400AF4FF0B0436C
:1025CC00D3F890304FF0B04223F48033C2F89030FF
:1025DC0000BFBD465DF8047B704780B400AF4FF080
:1025EC00B0431B684FF0B04243F08063136000BFF0
:1025FC00BD465DF8047B704780B400AF4FF0B0432C
:10260C001B684FF0B04223F08063136000BFBD46DF
:10261C005DF8047B704780B400AF4FF0B0431B688B
:10262C0003F00063B3F1006F01D1012300E000233C
:10263C001846BD465DF8047B704780B588B000AF86
:10264C0078600023FB770023BB777B681B6803F063
:10265C004003002B34D07B681B6BB3F5400F21D0AB
:10266C00B3F5400F1BD8B3F5000F1DD0B3F5000F19
:10267C0015D8002B0BD0B3F5800F10D14FF0B04311
:10268C00DB684FF0B04243F48033D3600DE07B68DD
:10269C000433184600F047F90346FB7705E00123A5
:1026AC00FB7702E000BF00E000BFFB7F002B05D1F1
:1026BC007B681B6B1846FFF7E8FE01E0FB7FBB77DE
:1026CC007B681B6803F40063002B46D0FFF756FFB2
:1026DC00B8617B681B6CBA699A423CD0FEF768FC07
:1026EC00BB69002B05D17B681B6C1846FFF730FFCC
:1026FC002EE04FF0B043D3F890307B61FFF74BFFE7
:10270C00FFF75AFF7B6923F440727B681B6C134301
:10271C007B614FF0B0427B69C2F89030FFF7F0FD5F
:10272C000346012B14D1FEF781F938610BE0FEF75B
:10273C007DF902463B69D31A41F28832934202D9A1
:10274C000323FB7704E0FFF7EDFD0346012BEED1ED
:10275C00FB7FBB7701E0FB7FBB777B681B6803F0DB
:10276C000103002B04D07B689B691846FFF72AFEF7
:10277C007B681B6803F00203002B04D07B68DB69C9
:10278C001846FFF735FE7B681B6803F01003002B1F
:10279C0004D07B689B6A1846FFF75DFE7B681B685C
:1027AC0003F02003002B04D07B68DB6A1846FFF78C
:1027BC0052FE7B681B6803F00403002B04D07B687B
:1027CC001B6A1846FFF72AFE7B681B6803F0080398
:1027DC00002B04D07B685B6A1846FFF71FFE7B68F2
:1027EC001B6803F48073002B22D07B685B6B18464C
:1027FC00FFF78DFE7B685B6BB3F1006F07D14FF079
:10280C00B043DB684FF0B04243F08073D3607B6819
:10281C005B6BB3F1806F0BD17B680433184600F00F
:10282C00DDF80346FB77FB7F002B01D0FB7FBB77EA
:10283C007B681B6803F40073002B2BD07B689B6BAD
:10284C00B3F1804F08D07B689B6BB3F1004F03D082
:10285C007B689B6B002B05D17B689B6B1846FFF745
:10286C002AFE0AE07B689B6B23F08053FB60002000
:10287C00FFF721FEF868FFF734FE7B689B6BB3F122
:10288C00C05F07D14FF0B043DB684FF0B04243F06C
:10289C008073D3607B681B6803F48063002B22D0A9
:1028AC007B68DB6B1846FFF73DFE7B68DB6BB3F197
:1028BC00005F07D14FF0B043DB684FF0B04243F4F8
:1028CC008033D3607B68DB6BB3F1805F0BD17B68AB
:1028DC000433184600F0DDF80346FB77FB7F002B32
:1028EC0001D0FB7FBB777B681B6803F48053002B04
:1028FC0004D07B685B6C1846FFF726FD7B681B6871
:10290C0003F40053002B09D07B68DB6C1846FFF7EF
:10291C0045FD7B689B6C1846FFF72CFDBB7F18466A
:10292C002037BD4680BD80B584B000AF78600023F1
:10293C00FB73FFF761FEFEF779F8B86009E0FEF76C
:10294C0075F80246BB68D31A022B02D90323FB731A
:10295C0004E0FFF760FE0346002BF0D1FB7B002B5D
:10296C0037D14FF0B0431B6923F4FE427B681B68E0
:10297C001B024FF0B04113430B614FF0B0431B6986
:10298C0023F478127B685B684FF0B04113430B6102
:10299C00FFF723FEFEF74AF8B86009E0FEF746F8A9
:1029AC000246BB68D31A022B02D90323FB7304E043
:1029BC00FFF731FE0346012BF0D1FB7B002B08D136
:1029CC004FF0B0431A697B681B694FF0B041134359
:1029DC000B61FB7B18461037BD4680BD80B584B0BB
:1029EC0000AF78600023FB73FFF706FEFEF71EF8BE
:1029FC00B86009E0FEF71AF80246BB68D31A022B3E
:102A0C0002D90323FB7304E0FFF705FE0346002BFA
:102A1C00F0D1FB7B002B37D14FF0B0431B6923F473
:102A2C00FE427B681B681B024FF0B04113430B61E5
:102A3C004FF0B0431B6923F060627B689B684FF0DA
:102A4C00B04113430B61FFF7C8FDFDF7EFFFB86012
:102A5C0009E0FDF7EBFF0246BB68D31A022B02D943
:102A6C000323FB7304E0FFF7D6FD0346012BF0D1E3
:102A7C00FB7B002B08D14FF0B0431A697B681B69B4
:102A8C004FF0B04113430B61FB7B18461037BD462A
:102A9C0080BD80B584B000AF78600023FB73FFF776
:102AAC00ABFDFDF7C3FFB86009E0FDF7BFFF0246C1
:102ABC00BB68D31A022B02D90323FB7304E0FFF784
:102ACC00AAFD0346002BF0D1FB7B002B37D14FF036
:102ADC00B0431B6923F4FE427B681B681B024FF05A
:102AEC00B04113430B614FF0B0431B6923F06042BC
:102AFC007B68DB684FF0B04113430B61FFF76DFD52
:102B0C00FDF794FFB86009E0FDF790FF0246BB6843
:102B1C00D31A022B02D90323FB7304E0FFF77BFDCE
:102B2C000346012BF0D1FB7B002B08D14FF0B043B7
:102B3C001A697B681B694FF0B04113430B61FB7B37
:102B4C0018461037BD4680BD80B483B000AF7860A6
:102B5C004FF0B043D3F888207B68134018460C37ED
:102B6C00BD465DF8047B704780B483B000AF7860DD
:102B7C004FF0B043D3F888207B68134018460C37CD
:102B8C00BD465DF8047B704780B582B000AF7860BD
:102B9C007B68002B01D1012342E07B68D3F888309D
:102BAC00002B06D17B68002283F884207868FDF71F
:102BBC00D3FD7B682422C3F888207B681B681A68C5
:102BCC007B681B6822F001021A607B689B6A002BF1
:102BDC0002D0786800F050FA786800F025F80346C7
:102BEC00012B01D101231BE07B681B685A687B68B1
:102BFC001B6822F490425A607B681B689A687B6859
:102C0C001B6822F02A029A607B681B681A687B6832
:102C1C001B6842F001021A60786800F0CFFA034694
:102C2C0018460837BD4680BD2DE9B04F8CB000AFBB
:102C3C007861002387F82A307B699A687B691B6965
:102C4C001A437B695B691A437B69DB691343FB623B
:102C5C007B691B681A68AF4B13407A691268F96A72
:102C6C000B4313607B691B685B6823F440517B69E1
:102C7C00DA687B691B680A435A607B699B69FB6253
:102C8C007B691B68A44A934204D07B691B6AFA6A6D
:102C9C001343FB627B691B689B6823F06E4323F430
:102CAC0030637A691268F96A0B4393607B691B681D
:102CBC00DB6A23F00F017B695A6A7B691B680A4344
:102CCC00DA627B691B68954A934225D10320FFF792
:102CDC003BFF0346032B1BD801A252F823F000BF85
:102CEC00FD2C00080D2D0008052D0008152D0008E1
:102CFC00012387F82B3042E0022387F82B303EE08B
:102D0C00042387F82B303AE0082387F82B3036E081
:102D1C00102387F82B3032E07B691B687E4A934284
:102D2C002AD14FF44060FFF71FFF0346B3F5406F05
:102D3C001AD0B3F5406F1BD8B3F5006F0CD0B3F5B8
:102D4C00006F15D8002B03D0B3F5806F08D00FE0BF
:102D5C00002387F82B3012E0022387F82B300EE08B
:102D6C00042387F82B300AE0082387F82B3006E081
:102D7C00102387F82B3002E0102387F82B307B6967
:102D8C001B68654A934240F0978097F82B30082BCC
:102D9C0023D801A252F823F0C92D0008E72D000812
:102DAC00D12D0008E72D0008D72D0008E72D0008CD
:102DBC00E72D0008E72D0008DF2D0008FFF7C0F90C
:102DCC00786210E0564B7B620DE0FFF739F97862C0
:102DDC0009E04FF400437B6205E000237B62012392
:102DEC0087F82A3000BF7B6A002B00F02B817B69AF
:102DFC005B6A4C4A32F813301A467B6AB3FBF2F327
:102E0C00BB617B695A6813465B001344BA699A42EA
:102E1C0005D37B695B681B03BA699A4203D901230A
:102E2C0087F82A300EE17B6A0022BB60FA607B696E
:102E3C005B6A3C4A32F813309BB200223B607A60EA
:102E4C00D7E90023D7E90201FDF792F902460B46B8
:102E5C00104619464FF000024FF000030B0243EAF4
:102E6C001063020279694968490800200C4605463E
:102E7C0012EB040843EB05097B695B6800229A4658
:102E8C00934652465B4640464946FDF771F9024669
:102E9C000B4613463B623B6AB3F5407F08D33B6A53
:102EAC00B3F5801F04D27B691B683A6ADA60C9E00B
:102EBC00012387F82A30C5E07B69DB69B3F5004F45
:102ECC006DD197F82B30013B072B2DD801A252F86E
:102EDC0023F000BF012F0008092F0008352F000830
:102EEC000F2F0008352F0008352F0008352F00084C
:102EFC00172F0008FFF73AF978621BE0084B7B624A
:102F0C0018E0FFF79DF8786214E04FF400437B6201
:102F1C0010E000BFF369FFCF008000400038014093
:102F2C000024F400F837000800237B62012387F8A3
:102F3C002A3000BF7B6A002B00F084807B695B6ABF
:102F4C004B4A32F813301A467B6AB3FBF2F35A0041
:102F5C007B695B685B081A447B695B68B2FBF3F3C3
:102F6C003B623B6A0F2B16D93B6AB3F5803F12D2FA
:102F7C003B6A9BB223F00F03FB833B6A5B089BB25B
:102F8C0003F007039AB2FB8B1343FB837B691B682B
:102F9C00FA8BDA6056E0012387F82A3052E097F872
:102FAC002B30013B072B22D801A252F823F000BF93
:102FBC00DD2F0008E52F0008FB2F0008EB2F000881
:102FCC00FB2F0008FB2F0008FB2F0008F32F000835
:102FDC00FFF7CCF8786210E0264B7B620DE0FFF730
:102FEC002FF8786209E04FF400437B6205E0002380
:102FFC007B62012387F82A3000BF7B6A002B21D02B
:10300C007B695B6A1A4A32F813301A467B6AB3FB47
:10301C00F2F27B695B685B081A447B695B68B2FB04
:10302C00F3F33B623B6A0F2B09D93B6AB3F5803F44
:10303C0005D23B6A9AB27B691B68DA6002E0012315
:10304C0087F82A307B690122A3F86A207B69012268
:10305C00A3F868207B6900225A677B6900229A6773
:10306C0097F82A3018463037BD46BDE8B08F00BF00
:10307C00F83700080024F40080B483B000AF786007
:10308C007B689B6A03F00803002B0AD07B681B68E3
:10309C005B6823F400417B689A6B7B681B680A436E
:1030AC005A607B689B6A03F00103002B0AD07B6893
:1030BC001B685B6823F400317B68DA6A7B681B68E9
:1030CC000A435A607B689B6A03F00203002B0AD008
:1030DC007B681B685B6823F480317B681A6B7B68A8
:1030EC001B680A435A607B689B6A03F00403002B3D
:1030FC000AD07B681B685B6823F480217B685A6B61
:10310C007B681B680A435A607B689B6A03F0100358
:10311C00002B0AD07B681B689B6823F480517B686A
:10312C00DA6B7B681B680A439A607B689B6A03F0C6
:10313C002003002B0AD07B681B689B6823F400518A
:10314C007B681A6C7B681B680A439A607B689B6A75
:10315C0003F04003002B1AD07B681B685B6823F4D8
:10316C0080117B685A6C7B681B680A435A607B68C9
:10317C005B6CB3F5801F0AD17B681B685B6823F41A
:10318C00C0017B689A6C7B681B680A435A607B6839
:10319C009B6A03F08003002B0AD07B681B685B687A
:1031AC0023F400217B68DA6C7B681B680A435A6045
:1031BC0000BF0C37BD465DF8047B704780B598B0F6
:1031CC0002AF78607B680022C3F89020FDF72EFCDC
:1031DC0078657B681B681B6803F00803082B2FD1EC
:1031EC006FF07E4300937B6D00224FF400117868E2
:1031FC0000F08EF80346002B22D07B681B68BB6363
:10320C00BB6B53E8003F7B637B6B23F080033B6518
:10321C007B681B681A463B6D7B643A64396C7A6C2C
:10322C0041E80023FB63FB6B002BE6D17B6820227B
:10323C00C3F888207B68002283F88420032363E092
:10324C007B681B681B6803F00403042B49D16FF0E7
:10325C007E4300937B6D00224FF48001786800F070
:10326C0057F80346002B3CD07B681B687B627B6A5B
:10327C0053E8003F3B623B6A23F49073FB647B682A
:10328C001B681A46FB6C3B63FA62F96A3A6B41E8BD
:10329C000023BB62BB6A002BE6D17B681B6808333A
:1032AC003B613B6953E8003FFB60FB6823F0010383
:1032BC00BB647B681B680833BA6CFA61BB61B96983
:1032CC00FA6941E800237B617B69002BE5D17B68BF
:1032DC002022C3F88C207B68002283F884200323EF
:1032EC0012E07B682022C3F888207B682022C3F878
:1032FC008C207B680022DA667B6800221A677B6868
:10330C00002283F88420002318465837BD4680BD20
:10331C0080B584B000AFF860B9603B601346FB71B8
:10332C0049E0BB69B3F1FF3F45D0FDF77FFB024697
:10333C003B68D31ABA699A4202D3BB69002B01D1FC
:10334C00032348E0FB681B681B6803F00403002B95
:10335C0031D0FB681B68DB6903F00803082B10D124
:10336C00FB681B6808221A62F86800F038F8FB68E2
:10337C000822C3F89020FB68002283F884200123E4
:10338C0029E0FB681B68DB6903F40063B3F5006F8D
:10339C0011D1FB681B684FF400621A62F86800F0E8
:1033AC001EF8FB682022C3F89020FB68002283F8EB
:1033BC00842003230FE0FB681B68DA69BB681340A9
:1033CC00BA689A420CBF01230023DBB21A46FB7980
:1033DC009A42A6D0002318461037BD4680BD80B453
:1033EC0095B000AF78607B681B687B637B6B53E8A0
:1033FC00003F3B633B6B23F49073FB647B681B685F
:10340C001A46FB6C3B64FA63F96B3A6C41E8002397
:10341C00BB63BB6B002BE6D17B681B6808333B623C
:10342C003B6A53E8003FFB61FB6923F0805323F0B8
:10343C000103BB647B681B680833BA6CFA62BB621D
:10344C00B96AFA6A41E800237B627B6A002BE3D1FC
:10345C007B68DB6E012B18D17B681B68FB60FB68FB
:10346C0053E8003FBB60BB6823F010037B647B68B0
:10347C001B681A467B6CBB617A617969BA6941E851
:10348C0000233B613B69002BE6D17B682022C3F80B
:10349C008C207B680022DA667B6800225A6700BFAA
:1034AC005437BD465DF8047B704780B485B000AFDF
:1034BC0078607B6893F88430012B01D1022327E0DC
:1034CC007B68012283F884207B682422C3F888203F
:1034DC007B681B681B68FB607B681B681A687B68D1
:1034EC001B6822F001021A60FB6823F00053FB609A
:1034FC007B6800225A667B681B68FA681A607B68D6
:10350C002022C3F888207B68002283F884200023C3
:10351C0018461437BD465DF8047B704780B584B0FF
:10352C0000AF786039607B6893F88430012B01D14F
:10353C0002232DE07B68012283F884207B682422FF
:10354C00C3F888207B681B681B68FB607B681B6862
:10355C001A687B681B6822F001021A607B681B6882
:10356C009B6823F060417B681B683A680A439A6049
:10357C00786800F04FF87B681B68FA681A607B6803
:10358C002022C3F888207B68002283F88420002343
:10359C0018461037BD4680BD80B584B000AF78604A
:1035AC0039607B6893F88430012B01D102232DE024
:1035BC007B68012283F884207B682422C3F888204E
:1035CC007B681B681B68FB607B681B681A687B68E0
:1035DC001B6822F001021A607B681B689B6823F051
:1035EC0060617B681B683A680A439A60786800F0EF
:1035FC0011F87B681B68FA681A607B682022C3F894
:10360C0088207B68002283F884200023184610371A
:10361C00BD4680BD80B485B000AF78607B685B6EC2
:10362C00002B08D17B680122A3F86A207B68012259
:10363C00A3F8682031E00823FB730823BB737B6875
:10364C001B689B685B0EDBB203F007037B737B6824
:10365C001B689B685B0FDBB203F007033B73BB7B00
:10366C003A7B11498A5C02FB03F33A7B0F498A5C73
:10367C0093FBF2F39AB27B68A3F86A20FB7B7A7B0C
:10368C0009498A5C02FB03F37A7B08498A5C93FB49
:10369C00F2F39AB27B68A3F8682000BF1437BD46DA
:1036AC005DF8047B704700BF10380008183800081C
:1036BC0002440346934200D1704703F8011BF9E71B
:1036CC0070B50D4D0D4C641BA4100026A64209D1FB
:1036DC000B4D0C4C00F018F8641BA4100026A642ED
:1036EC0005D170BD55F8043B98470136EEE755F807
:1036FC00043B98470136F2E72838000828380008C0
:10370C00283800082C380008F8B500BFF8BC08BCF5
:10371C009E467047F8B500BFF8BC08BC9E46704783
:10372C0012000000240000003600000040000000E1
:10373C00060000000C00000010000000000000005B
:10374C000100000002000000030000000100000066
:10375C000300000005000000010000000100000053
:10376C00060000000A00000020000000020000001B
:10377C0004000000080000001000000040000000E1
:10378C0080000000000100000002000000000000AA
:10379C00000000000000000000000000010000001C
:1037AC00020000000300000004000000A0860100DD
:1037BC00400D0300801A060000350C0040420F003B
:1037CC0080841E0000093D0000127A000024F400E1
:1037DC0000366E010048E801006CDC0200000000BD
:1037EC0000000000000000000000000001000200CA
:1037FC000400060008000A000C0010002000400025
:10380C00800000010101010307010000080402040B
:04381C00080101019D
:083820008CC9FF7F01000000CC
:043828006101000832
:04382C003D01000852
:0C38300000093D00100000000100000035
:0400000508000901E5
:00000001FF
