:020000040800F2
:1000000000500020A90700089D060008A30600086C
:10001000A9060008AF060008B506000800000000A9
:10002000000000000000000000000000BB06000807
:10003000C706000800000000D3060008DF0600081D
:10004000F1070008F1070008F1070008F1070008B0
:10005000F1070008F1070008EB060008F9060008A0
:10006000F10700080707000815070008F107000856
:10007000F1070008F1070008F1070008F107000880
:10008000F1070008F1070008F1070008F107000870
:10009000F1070008F1070008F1070008230700082E
:1000A000F1070008F1070008F1070008F107000850
:1000B00059050008F1070008F1070008F1070008DA
:1000C000F1070008F1070008F1070008F107000830
:1000D000F1070008F1070008F1070008F107000820
:1000E000F1070008F1070008F10700080000000010
:1000F0000000000000000000000000000000000000
:0C01000000000000000000005FF808F1A3
:10010C0010B5054C237833B9044B13B10448AFF345
:10011C0000800123237010BD8C0000200000000023
:10012C00B42B000808B5034B1BB103490348AFF3CC
:10013C00008008BD0000000090000020B42B0008D7
:10014C00034613F8012B002AFBD1181A013870470B
:10015C0080B582B000AF00F047FB00F031F800F042
:10016C00E9F800F0BDF800F06FF8114801F0E4FA7E
:10017C000F4B1B6800225A620A2000F097FB0C4BB5
:10018C001B685B6A7B607A680A490B4802F05AF874
:10019C000948FFF7D5FF03469AB20A2306490748D8
:1001AC0001F0D0FE41F2883000F080FBE0E700BFA8
:1001BC00A8000020CC2B000838010020F000002003
:1001CC0080B590B000AF07F1180328220021184623
:1001DC0002F058F83B1D00221A605A609A60DA60EF
:1001EC001A610123BB614FF48033FB6100233B6236
:1001FC000123BB6202237B634FF48033BB634FF458
:10020C000023FB6307F11803184600F035FE034684
:10021C00002B01D000F0A4F90F237B600223BB60FC
:10022C000023FB6000233B6100237B613B1D01210C
:10023C00184601F0A3F80346002B01D000F090F90A
:10024C0000BF4037BD4680BD80B586B000AF07F11A
:10025C00080300221A605A609A60DA603B4600225A
:10026C001A605A601D4B4FF080421A601B4B1F22C4
:10027C005A601A4B00229A60184B4FF6E852DA601B
:10028C00164B00221A61154B80229A61134801F01B
:10029C0003FA0346002B01D000F062F94FF48053AF
:1002AC00BB6007F1080319460C4801F09FFB03469D
:1002BC00002B01D000F054F900233B6000237B603D
:1002CC003B461946054801F07DFD0346002B01D045
:1002DC0000F046F900BF1837BD4680BDA8000020CD
:1002EC0080B500AF114B124A1A60104B4FF4E1323B
:1002FC005A600E4B00229A600C4B0022DA600B4BBA
:10030C0000221A61094B0C225A61084B00229A6197
:10031C00064B0022DA61054801F0C4FD0346002BB0
:10032C0001D000F01DF900BF80BD00BFF00000201F
:10033C000038014080B588B000AF07F110030022EF
:10034C001A605A609A60DA60484B9B69474A43F0DE
:10035C0010039361454B9B6903F01003FB60FB6832
:10036C00424B9B69414A43F0200393613F4B9B698D
:10037C0003F02003BB60BB683C4B9B693B4A43F0DA
:10038C0008039361394B9B6903F008037B607B681E
:10039C00364B9B69354A43F004039361334B9B699D
:1003AC0003F004033B603B6800224FF400513048DB
:1003BC0000F032FD01224FF480512E4800F02CFD4C
:1003CC004FF400533B6101237B610023BB6102238B
:1003DC00FB6107F110031946254800F099FB3B23FC
:1003EC003B61254B7B610123BB6107F1100319466F
:1003FC00224800F08DFB4FF480533B6101237B615D
:10040C000023BB610223FB6107F110031946194855
:10041C0000F07EFB00220021062000F042FB0620AB
:10042C0000F05BFB00220121072000F03AFB0720C3
:10043C0000F053FB00220321092000F032FB0920BD
:10044C0000F04BFB002204210A2000F02AFB0A20BA
:10045C0000F043FB00220021172000F022FB1720A4
:10046C0000F03BFB00BF2037BD4680BD00100240B2
:10047C00001001400008014000002110000C014058
:10048C0080B584B000AF0346FB800023FB6002E024
:10049C00FB680133FB60FB68244A9342F8DD244B74
:1004AC001B680133224A13602248FFF749FE0346BA
:1004BC009AB20A231F49204801F044FDFB88012B06
:1004CC0009D11E48FFF73CFE03469AB20A231B498A
:1004DC00194801F037FDFB88022B09D11848FFF7AA
:1004EC002FFE03469AB20A231549134801F02AFD40
:1004FC00FB88102B09D11348FFF722FE03469AB252
:10050C000A2310490C4801F01DFDFB88202B09D152
:10051C000D48FFF715FE03469AB20A230A4906480E
:10052C0001F010FD00BF1037BD4680BD7F841E005A
:10053C006C01002000000020F000002010000020C2
:10054C0018000020200000202800002080B500AFFB
:10055C00024801F043F900BF80BD00BFA800002095
:10056C0080B400AF72B600BFFEE7000080B483B069
:10057C0000AF0E4B9B690D4A43F0010393610B4B8B
:10058C009B6903F001037B607B68084BDB69074ABE
:10059C0043F08053D361054BDB6903F080533B6020
:1005AC003B6800BF0C37BD4680BC70470010024052
:1005BC0080B584B000AF78607B681B68B3F1804F66
:1005CC0013D10C4BDB690B4A43F00103D361094B8C
:1005DC00DB6903F00103FB60FB68002200211C2097
:1005EC0000F05FFA1C2000F078FA00BF1037BD460F
:1005FC0080BD00BF0010024080B588B000AF7860AD
:10060C0007F1100300221A605A609A60DA607B6866
:10061C001B681C4A934231D11B4B9B691A4A43F409
:10062C0080439361184B9B6903F48043FB60FB6828
:10063C00154B9B69144A43F004039361124B9B695D
:10064C0003F00403BB60BB684FF400733B610223EF
:10065C007B610323FB6107F1100319460B4800F083
:10066C0057FA4FF480633B6100237B610023BB612D
:10067C0007F110031946054800F04AFA00BF20376D
:10068C00BD4680BD0038014000100240000801400A
:10069C0080B400AFFEE780B400AFFEE780B400AFDB
:1006AC00FEE780B400AFFEE780B400AFFEE780B495
:1006BC0000AF00BFBD4680BC704780B400AF00BF28
:1006CC00BD4680BC704780B400AF00BFBD4680BC47
:1006DC00704780B500AF00F0CDF800BF80BD80B58D
:1006EC0000AF012000F0B0FB00BF80BD80B500AFB3
:1006FC00022000F0A9FB00BF80BD80B500AF082030
:10070C0000F0A2FB00BF80BD80B500AF102000F050
:10071C009BFB00BF80BD80B500AF202000F094FB98
:10072C0000BF80BD80B586B000AF7860144A154B11
:10073C00D31A7B617B693B61134B1B68002B02D185
:10074C00114B124A1A60104B1A687B6813443A69B1
:10075C009A4207D201F09EFD03460C221A604FF01C
:10076C00FF3309E0084B1B68FB60074B1A687B687A
:10077C001344054A1360FB6818461837BD4680BD04
:10078C00005000200004000070010020C002002076
:10079C0080B400AF00BFBD4680BC7047FFF7F8FFC8
:1007AC000B480C490C4A002302E0D458C4500433C3
:1007BC00C4188C42F9D3094A094C002301E0136098
:1007CC000432A242FBD301F06BFDFFF7C1FC704772
:1007DC00000000208C0000203C2C00088C00002025
:1007EC00C0020020FEE7000080B500AF084B1B687C
:1007FC00074A43F010031360032000F047F90F2061
:10080C0000F008F8FFF7B2FE0023184680BD00BFC9
:10081C000020024080B582B000AF7860124B1A689D
:10082C00124B1B7819464FF47A73B3FBF1F3B2FBFE
:10083C00F3F3184600F05FF90346002B01D00123B7
:10084C000EE07B680F2B0AD8002279684FF0FF303E
:10085C0000F027F9064A7B681360002300E00123AF
:10086C0018460837BD4680BD3000002038000020F7
:10087C003400002080B400AF054B1B781A46054BA2
:10088C001B681344034A136000BFBD4680BC70470D
:10089C00380000207401002080B400AF024B1B68AC
:1008AC001846BD4680BC70477401002080B584B0EA
:1008BC0000AF7860FFF7F0FFB8607B68FB60FB6807
:1008CC00B3F1FF3F05D00A4B1B781A46FB68134463
:1008DC00FB6000BFFFF7E0FF0246BB68D31AFA6863
:1008EC009A42F7D800BF00BF1037BD4680BD00BF8D
:1008FC003800002080B485B000AF78607B6803F0CE
:10090C000703FB600C4BDB68BB60BA684FF6FF0358
:10091C001340BB60FB681A02BB68134343F0BF6310
:10092C0043F40033BB60044ABB68D36000BF143788
:10093C00BD4680BC704700BF00ED00E080B400AF46
:10094C00044BDB681B0A03F007031846BD4680BC4A
:10095C00704700BF00ED00E080B483B000AF0346E9
:10096C00FB7197F90730002B0BDBFB7903F01F02AF
:10097C00064997F907305B09012000FA02F241F8A9
:10098C00232000BF0C37BD4680BC704700E100E05F
:10099C0080B483B000AF03463960FB7197F9073020
:1009AC00002B0ADB3B68DAB20C4997F907301201CD
:1009BC00D2B20B4483F800230AE03B68DAB2084950
:1009CC00FB7903F00F03043B1201D2B20B441A76ED
:1009DC0000BF0C37BD4680BC704700BF00E100E093
:1009EC0000ED00E080B489B000AFF860B9607A60C7
:1009FC00FB6803F00703FB61FB69C3F10703042BDE
:100A0C0028BF0423BB61FB690433062B02D9FB69A5
:100A1C00033B00E000237B614FF0FF32BB6902FA1D
:100A2C0003F3DA43BB681A407B699A404FF0FF31FD
:100A3C007B6901FA03F3D9437B680B4013431846D7
:100A4C002437BD4680BC704780B582B000AF78605B
:100A5C007B68013BB3F1807F01D301230FE00A4A8D
:100A6C007B68013B53600F214FF0FF30FFF790FF85
:100A7C00054B00229A60044B07221A60002318468B
:100A8C000837BD4680BD00BF10E000E080B582B0E5
:100A9C0000AF78607868FFF72DFF00BF0837BD46C0
:100AAC0080BD80B586B000AF0346B9607A60FB7339
:100ABC0000237B61FFF742FF78617A68B968786937
:100ACC00FFF790FF024697F90F3011461846FFF7D3
:100ADC005FFF00BF1837BD4680BD80B582B000AF48
:100AEC000346FB7197F907301846FFF735FF00BF37
:100AFC000837BD4680BD80B582B000AF786078689D
:100B0C00FFF7A2FF034618460837BD4680BD00001C
:100B1C0080B48BB000AF7860396000237B62002317
:100B2C003B6269E101227B6A02FA03F3FB613B68D9
:100B3C001B68FA691340BB61BA69FB699A4240F0C1
:100B4C0058813B685B689A4A93425ED0984A9342BC
:100B5C0075D8984A934258D0964A93426FD8964A81
:100B6C00934252D0944A934269D8944A93424CD0BF
:100B7C00924A934263D8924A934246D0904A934207
:100B8C005DD8122B2AD8122B59D801A252F823F077
:100B9C00170C0008F10B0008030C0008450C0008AA
:100BAC004B0C00084B0C00084B0C00084B0C0008BD
:100BBC004B0C00084B0C00084B0C00084B0C0008AD
:100BCC004B0C00084B0C00084B0C00084B0C00089D
:100BDC004B0C0008F90B00080D0C0008794A9342E5
:100BEC0013D02CE03B68DB683B6229E03B68DB6898
:100BFC0004333B6224E03B68DB6808333B621FE054
:100C0C003B68DB680C333B621AE03B689B68002B4B
:100C1C0002D104233B6213E03B689B68012B05D196
:100C2C0008233B627B68FA691A6109E008233B627E
:100C3C007B68FA695A6103E000233B6200E000BF65
:100C4C00BB69FF2B01D87B6801E07B6804337B61B7
:100C5C00BB69FF2B02D87B6A9B0002E07B6A083BD6
:100C6C009B003B617B691A680F213B6901FA03F316
:100C7C00DB431A40396A3B6901FA03F31A437B6977
:100C8C001A603B685B6803F08053002B00F0B18066
:100C9C004D4B9B694C4A43F0010393614A4B9B6952
:100CAC0003F00103BB60BB68484A7B6A9B080233B4
:100CBC0052F82330FB607B6A03F003039B000F2286
:100CCC0002FA03F3DB43FA681340FB607B68404A8B
:100CDC00934213D07B683F4A93420DD07B683E4AC7
:100CEC00934207D07B683D4A934201D1032306E02F
:100CFC00042304E0022302E0012300E000237A6ACB
:100D0C0002F0030292009340FA681343FB602F49F0
:100D1C007B6A9B080233FA6841F823203B685B68C6
:100D2C0003F48013002B06D02D4B9A682C49BB6919
:100D3C0013438B6006E02A4B9A68BB69DB43284956
:100D4C0013408B603B685B6803F40013002B06D0E8
:100D5C00234BDA682249BB691343CB6006E0204B76
:100D6C00DA68BB69DB431E491340CB603B685B68A8
:100D7C0003F40033002B06D0194B5A681849BB6991
:100D8C0013434B6006E0164B5A68BB69DB431449AE
:100D9C0013404B603B685B6803F48033002B21D01D
:100DAC000F4B1A680E49BB6913430B6021E000BF5F
:100DBC000000321000003110000022100000211041
:100DCC000000121000001110001002400000014041
:100DDC0000080140000C01400010014000140140CB
:100DEC00000401400B4B1A68BB69DB4309491340F3
:100DFC000B607B6A01337B623B681A687B6A22FA60
:100E0C0003F3002B7FF48EAE00BF00BF2C37BD4622
:100E1C0080BC70470004014080B483B000AF7860A0
:100E2C000B467B8013467B707B78002B03D07A8833
:100E3C007B681A6103E07B881A047B681A6100BF27
:100E4C000C37BD4680BC704780B582B000AF0346FE
:100E5C00FB80084B5A69FB881340002B06D0054ACF
:100E6C00FB885361FB881846FFF70AFB00BF083765
:100E7C00BD4680BD0004014080B586B000AF7860EF
:100E8C007B68002B01D1012372E27B681B6803F0A5
:100E9C000103002B00F08780924B5B6803F00C037E
:100EAC00042B0CD08F4B5B6803F00C03082B12D176
:100EBC008C4B5B6803F48033B3F5803F0BD1894BCB
:100ECC001B6803F40033002B6CD07B685B68002B31
:100EDC0068D101234CE27B685B68B3F5803F06D197
:100EEC00804B1B687F4A43F4803313602EE07B6891
:100EFC005B68002B0CD17B4B1B687A4A23F4803344
:100F0C001360784B1B68774A23F4802313601DE031
:100F1C007B685B68B3F5A02F0CD1724B1B68714AD0
:100F2C0043F4802313606F4B1B686E4A43F4803389
:100F3C0013600BE06B4B1B686A4A23F4803313601D
:100F4C00684B1B68674A23F4802313607B685B68DB
:100F5C00002B13D0FFF7A0FC386108E0FFF79CFCD6
:100F6C0002463B69D31A642B01D9032300E25D4B83
:100F7C001B6803F40033002BF0D014E0FFF78CFC5B
:100F8C00386108E0FFF788FC02463B69D31A642BF2
:100F9C0001D90323ECE1534B1B6803F40033002B02
:100FAC00F0D100E000BF7B681B6803F00203002B4C
:100FBC0063D04C4B5B6803F00C03002B0BD0494BFC
:100FCC005B6803F00C03082B1CD1464B5B6803F4E5
:100FDC008033002B16D1434B1B6803F00203002B0C
:100FEC0005D07B681B69012B01D00123C0E13D4B6F
:100FFC001B6823F0F8027B685B69DB0039491343FB
:10100C000B603AE07B681B69002B20D0364B012229
:10101C001A60FFF741FC386108E0FFF73DFC02461F
:10102C003B69D31A022B01D90323A1E12D4B1B6879
:10103C0003F00203002BF0D02A4B1B6823F0F802BC
:10104C007B685B69DB00274913430B6015E0264B7B
:10105C0000221A60FFF720FC386108E0FFF71CFC47
:10106C0002463B69D31A022B01D9032380E11D4BA5
:10107C001B6803F00203002BF0D17B681B6803F0A4
:10108C000803002B3AD07B689B69002B19D0174BB7
:10109C0001221A60FFF700FC386108E0FFF7FCFB47
:1010AC0002463B69D31A022B01D9032360E10D4B95
:1010BC005B6A03F00203002BF0D0012000F0CEFAA3
:1010CC001CE00A4B00221A60FFF7E6FB38610FE0C8
:1010DC00FFF7E2FB02463B69D31A022B08D9032324
:1010EC0046E100BF00100240000042428004424230
:1010FC00924B5B6A03F00203002BE9D17B681B68FF
:10110C0003F00403002B00F0A6800023FB758B4B2F
:10111C00DB6903F08053002B0DD1884BDB69874AC8
:10112C0043F08053D361854BDB6903F08053BB6084
:10113C00BB680123FB75824B1B6803F48073002B87
:10114C0018D17F4B1B687E4A43F480731360FFF702
:10115C00A3FB386108E0FFF79FFB02463B69D31AFB
:10116C00642B01D9032303E1754B1B6803F48073D3
:10117C00002BF0D07B68DB68012B06D16F4B1B6A10
:10118C006E4A43F0010313622DE07B68DB68002B91
:10119C000CD16A4B1B6A694A23F001031362674B3B
:1011AC001B6A664A23F0040313621CE07B68DB684D
:1011BC00052B0CD1614B1B6A604A43F0040313628C
:1011CC005E4B1B6A5D4A43F0010313620BE05B4B01
:1011DC001B6A5A4A23F001031362584B1B6A574A85
:1011EC0023F0040313627B68DB68002B15D0FFF738
:1011FC0053FB38610AE0FFF74FFB02463B69D31AF9
:10120C0041F28832934201D90323B1E04B4B1B6A64
:10121C0003F00203002BEED014E0FFF73DFB386126
:10122C000AE0FFF739FB02463B69D31A41F28832D8
:10123C00934201D903239BE0404B1B6A03F002034A
:10124C00002BEED1FB7D012B05D13C4BDB693B4ADE
:10125C0023F08053D3617B68DB69002B00F087801F
:10126C00364B5B6803F00C03082B61D07B68DB69A1
:10127C00022B46D1334B00221A60FFF70DFB38616D
:10128C0008E0FFF709FB02463B69D31A022B01D990
:10129C0003236DE0294B1B6803F00073002BF0D186
:1012AC007B681B6AB3F5803F08D1244B5B6823F441
:1012BC0000327B689B68214913434B601F4B5B6872
:1012CC0023F474127B68196A7B685B6A0B431B49B5
:1012DC0013434B601B4B01221A60FFF7DDFA386198
:1012EC0008E0FFF7D9FA02463B69D31A022B01D961
:1012FC0003233DE0114B1B6803F00073002BF0D06F
:10130C0035E0104B00221A60FFF7C6FA386108E08E
:10131C00FFF7C2FA02463B69D31A022B01D9032309
:10132C0026E0064B1B6803F00073002BF0D11EE087
:10133C007B68DB69012B07D1012319E00010024007
:10134C0000700040600042420B4B5B68FB60FB6826
:10135C0003F480327B681B6A9A4206D1FB6803F463
:10136C0070127B685B6A9A4201D0012300E0002373
:10137C0018461837BD4680BD0010024080B584B0B9
:10138C0000AF786039607B68002B01D10123D0E07D
:10139C006A4B1B6803F007033A689A4210D9674BF3
:1013AC001B6823F0070265493B6813430B60634BD2
:1013BC001B6803F007033A689A4201D00123B8E096
:1013CC007B681B6803F00203002B20D07B681B6832
:1013DC0003F00403002B05D0594B5B68584A43F4C7
:1013EC00E06353607B681B6803F00803002B05D097
:1013FC00534B5B68524A43F460535360504B5B68E9
:10140C0023F0F0027B689B684D4913434B607B686B
:10141C001B6803F00103002B40D07B685B68012B39
:10142C0007D1474B1B6803F40033002B15D1012364
:10143C007FE07B685B68022B07D1414B1B6803F094
:10144C000073002B09D1012373E03D4B1B6803F0A3
:10145C000203002B01D101236BE0394B5B6823F0B5
:10146C0003027B685B68364913434B60FFF714FA41
:10147C00F8600AE0FFF710FA0246FB68D31A41F253
:10148C008832934201D9032353E02D4B5B6803F060
:10149C000C027B685B689B009A42EBD1274B1B6864
:1014AC0003F007033A689A4210D2244B1B6823F0CE
:1014BC00070222493B6813430B60204B1B6803F067
:1014CC0007033A689A4201D0012332E07B681B681B
:1014DC0003F00403002B08D0194B5B6823F4E06283
:1014EC007B68DB68164913434B607B681B6803F011
:1014FC000803002B09D0124B5B6823F460527B6805
:10150C001B69DB000E4913434B6000F021F80246C7
:10151C000B4B5B681B0903F00F030A49CB5C22FAE7
:10152C0003F3094A1360094B1B681846FFF772F95D
:10153C00002318461037BD4680BD00BF0020024076
:10154C0000100240D42B0008300000203400002092
:10155C0080B487B000AF0023FB600023BB60002386
:10156C007B6100237B6000233B611E4B5B68FB604F
:10157C00FB6803F00C03042B02D0082B03D027E0EC
:10158C00194B3B6127E0FB689B0C03F00F03174AD8
:10159C00D35C7B60FB6803F48033002B10D0114BC1
:1015AC005B685B0C03F00103114AD35CBB607B6886
:1015BC000D4A03FB02F2BB68B2FBF3F37B6104E060
:1015CC007B680C4A02FB03F37B617B693B6102E0A5
:1015DC00054B3B6100BF3B6918461C37BD4680BCC0
:1015EC00704700BF0010024000127A00EC2B00087C
:1015FC00FC2B000800093D0080B400AF024B1B68B7
:10160C001846BD4680BC70473000002080B500AF46
:10161C00FFF7F2FF0246054B5B681B0A03F007035A
:10162C000349CB5C22FA03F3184680BD001002403C
:10163C00E42B000880B500AFFFF7DEFF0246054B38
:10164C005B68DB0A03F007030349CB5C22FA03F364
:10165C00184680BD00100240E42B000880B485B011
:10166C0000AF78600A4B1B680A4AA2FB03235B0A93
:10167C007A6802FB03F3FB6000BFFB685A1EFA603A
:10168C00002BF9D100BF00BF1437BD4680BC70479A
:10169C0030000020D34D621080B582B000AF78606E
:1016AC007B68002B01D1012341E07B6893F83D302E
:1016BC00DBB2002B06D17B68002283F83C207868D3
:1016CC00FEF776FF7B68022283F83D207B681A6860
:1016DC007B6804331946104600F07CFA7B680122C3
:1016EC0083F846207B68012283F83E207B68012228
:1016FC0083F83F207B68012283F840207B6801221D
:10170C0083F841207B68012283F842207B68012208
:10171C0083F843207B68012283F844207B680122F4
:10172C0083F845207B68012283F83D20002318466E
:10173C000837BD4680BD000080B485B000AF78602E
:10174C007B6893F83D30DBB2012B01D001233AE0EA
:10175C007B68022283F83D207B681B68DA687B6813
:10176C001B6842F00102DA607B681B68184A9342DE
:10177C000ED07B681B68B3F1804F09D07B681B6867
:10178C00144A934204D07B681B68134A934211D1CC
:10179C007B681B689B6803F00703FB60FB68062BE8
:1017AC0010D07B681B681A687B681B6842F00102CA
:1017BC001A6007E07B681B681A687B681B6842F03C
:1017CC0001021A60002318461437BD4680BC7047CE
:1017DC00002C0140000400400008004080B582B09D
:1017EC0000AF78607B681B681B6903F00203022B57
:1017FC0022D17B681B68DB6803F00203022B1BD130
:10180C007B681B686FF002021A617B6801221A77F1
:10181C007B681B689B6903F00303002B03D078687B
:10182C0000F0BDF905E0786800F0B0F9786800F0D8
:10183C00BFF97B6800221A777B681B681B6903F071
:10184C000403042B22D17B681B68DB6803F00403C0
:10185C00042B1BD17B681B686FF004021A617B6838
:10186C0002221A777B681B689B6903F44073002B78
:10187C0003D0786800F093F905E0786800F086F9F9
:10188C00786800F095F97B6800221A777B681B68F2
:10189C001B6903F00803082B22D17B681B68DB68EB
:1018AC0003F00803082B1BD17B681B686FF0080240
:1018BC001A617B6804221A777B681B68DB6903F06A
:1018CC000303002B03D0786800F069F905E0786811
:1018DC0000F05CF9786800F06BF97B6800221A77ED
:1018EC007B681B681B6903F01003102B22D17B68EB
:1018FC001B68DB6803F01003102B1BD17B681B6883
:10190C006FF010021A617B6808221A777B681B68DB
:10191C00DB6903F44073002B03D0786800F03FF9C7
:10192C0005E0786800F032F9786800F041F97B68DE
:10193C0000221A777B681B681B6903F00103012BDB
:10194C000ED17B681B68DB6803F00103012B07D108
:10195C007B681B686FF001021A61786800F00DF962
:10196C007B681B681B6903F08003802B0ED17B689E
:10197C001B68DB6803F08003802B07D17B681B6836
:10198C006FF080021A61786800F083FA7B681B683C
:10199C001B6903F04003402B0ED17B681B68DB688E
:1019AC0003F04003402B07D17B681B686FF04002AB
:1019BC001A61786800F005F97B681B681B6903F0F5
:1019CC002003202B0ED17B681B68DB6803F02003FF
:1019DC00202B07D17B681B686FF020021A61786896
:1019EC0000F04EFA00BF0837BD4680BD80B584B00C
:1019FC0000AF786039600023FB737B6893F83C3050
:101A0C00012B01D10223B4E07B68012283F83C2036
:101A1C007B68022283F83D207B681B689B68BB6057
:101A2C00BB6823F07703BB60BB6823F47F43BB60C8
:101A3C007B681B68BA689A603B681B68B3F5005FEB
:101A4C003ED0B3F5005F00F28780B3F5805F00F005
:101A5C008680B3F5805F7FD8702B1AD0702B7BD823
:101A6C00602B50D0602B77D8502B3CD0502B73D898
:101A7C00402B58D0402B6FD8302B64D0302B6BD8E8
:101A8C00202B60D0202B67D8002B5CD0102B5AD089
:101A9C0062E07B6818683B6899683B685A683B68E9
:101AAC00DB6800F070F97B681B689B68BB60BB68E7
:101ABC0043F07703BB607B681B68BA689A604FE0A1
:101ACC007B6818683B6899683B685A683B68DB68B8
:101ADC0000F059F97B681B689A687B681B6842F4B4
:101AEC0080429A603CE07B6818683B6859683B68A8
:101AFC00DB681A4600F0D0F87B681B68502118464A
:101B0C0000F027F92CE07B6818683B6859683B6843
:101B1C00DB681A4600F0EEF87B681B6860211846FB
:101B2C0000F017F91CE07B6818683B6859683B6843
:101B3C00DB681A4600F0B0F87B681B684021184639
:101B4C0000F007F90CE07B681A683B681B681946C3
:101B5C00104600F0FEF803E00123FB7300E000BF29
:101B6C007B68012283F83D207B68002283F83C20AF
:101B7C00FB7B18461037BD4680BD80B483B000AFE8
:101B8C00786000BF0C37BD4680BC704780B483B012
:101B9C0000AF786000BF0C37BD4680BC704780B486
:101BAC0083B000AF786000BF0C37BD4680BC704777
:101BBC0080B483B000AF786000BF0C37BD4680BCEA
:101BCC00704780B483B000AF786000BF0C37BD465F
:101BDC0080BC704780B485B000AF786039607B689A
:101BEC001B68FB607B68294A93420BD07B68B3F17E
:101BFC00804F07D07B68264A934203D07B68254AE6
:101C0C00934208D1FB6823F07003FB603B685B6870
:101C1C00FA681343FB607B681C4A93420BD07B68C9
:101C2C00B3F1804F07D07B68194A934203D07B688D
:101C3C00184A934208D1FB6823F44073FB603B685D
:101C4C00DB68FA681343FB60FB6823F080023B6897
:101C5C005B691343FB607B68FA681A603B689A689F
:101C6C007B68DA623B681A687B689A627B68074A11
:101C7C00934203D13B681A697B681A637B68012223
:101C8C005A6100BF1437BD4680BC7047002C014020
:101C9C00000400400008004080B487B000AFF8603A
:101CAC00B9607A60FB681B6A7B61FB681B6A23F076
:101CBC000102FB681A62FB689B693B613B6923F07C
:101CCC00F0033B617B681B013A6913433B617B6901
:101CDC0023F00A037B617A69BB6813437B61FB6861
:101CEC003A699A61FB687A691A6200BF1C37BD4673
:101CFC0080BC704780B487B000AFF860B9607A6080
:101D0C00FB681B6A7B61FB681B6A23F01002FB6893
:101D1C001A62FB689B693B613B6923F470433B612E
:101D2C007B681B033A6913433B617B6923F0A00377
:101D3C007B61BB681B017A6913437B61FB683A6961
:101D4C009A61FB687A691A6200BF1C37BD4680BC79
:101D5C00704780B485B000AF786039607B689B6851
:101D6C00FB60FB6823F07003FB603A68FB6813436D
:101D7C0043F00703FB607B68FA689A6000BF143776
:101D8C00BD4680BC704780B487B000AFF860B960C6
:101D9C007A603B60FB689B687B617B6923F47F43C3
:101DAC007B613B681A027B681A43BB6813437A69F0
:101DBC0013437B61FB687A699A6000BF1C37BD4690
:101DCC0080BC704780B485B000AF786039607B68A8
:101DDC0093F83C30012B01D1022346E07B680122B1
:101DEC0083F83C207B68022283F83D207B681B68CB
:101DFC005B68FB607B681B689B68BB60FB6823F0BF
:101E0C007003FB603B681B68FA681343FB607B68DC
:101E1C001B68FA685A607B681B68164A93420ED09E
:101E2C007B681B68B3F1804F09D07B681B68124A32
:101E3C00934204D07B681B68104A93420CD1BB6858
:101E4C0023F08003BB603B685B68BA681343BB60DC
:101E5C007B681B68BA689A607B68012283F83D2016
:101E6C007B68002283F83C20002318461437BD46BB
:101E7C0080BC7047002C014000040040000800406A
:101E8C0080B483B000AF786000BF0C37BD4680BC17
:101E9C00704780B483B000AF786000BF0C37BD468C
:101EAC0080BC704780B582B000AF78607B68002B37
:101EBC0001D1012342E07B6893F84130DBB2002B67
:101ECC0006D17B68002283F840207868FEF794FBEB
:101EDC007B68242283F841207B681B68DA687B6866
:101EEC001B6822F40052DA60786800F01DF97B68F8
:101EFC001B681A697B681B6822F490421A617B6824
:101F0C001B685A697B681B6822F02A025A617B683D
:101F1C001B68DA687B681B6842F40052DA607B68E5
:101F2C0000225A647B68202283F841207B6820229F
:101F3C0083F842207B6800225A6300231846083736
:101F4C00BD4680BD80B58AB002AFF860B9603B6019
:101F5C001346FB8000237B61FB6893F84130DBB2B6
:101F6C00202B6DD1BB68002B02D0FB88002B01D13C
:101F7C00012366E0FB6800225A64FB68212283F887
:101F8C004120FEF789FC7861FB68FA889A84FB682B
:101F9C00FA88DA84FB689B68B3F5805F08D1FB682C
:101FAC001B69002B04D10023FB61BB68BB6103E000
:101FBC00BB68FB610023BB612AE03B6800937B6933
:101FCC0000228021F86800F040F80346002B01D075
:101FDC00032336E0FB69002B0BD1BB691B881A4627
:101FEC00FB681B68C2F308025A60BB690233BB6111
:101FFC0007E0FB691A78FB681B685A60FB690133C0
:10200C00FB61FB68DB8C9BB2013B9AB2FB68DA8408
:10201C00FB68DB8C9BB2002BCFD13B6800937B69B8
:10202C0000224021F86800F010F80346002B01D084
:10203C00032306E0FB68202283F84120002300E004
:10204C00022318462037BD4680BD80B590B000AF46
:10205C00F860B9603B601346FB7150E0BB6CB3F1A8
:10206C00FF3F4CD0BB6C002B07D0FEF715FC024693
:10207C003B68D31ABA6C9A4241D2FB681B680C338A
:10208C00BB62BB6A53E8003F7B627B6A23F4D0736C
:10209C00FB63FB681B680C33FA6B7A633B63396B2D
:1020AC007A6B41E80023FB62FB6A002BE5D1FB68ED
:1020BC001B6814337B617B6953E8003F3B613B69D0
:1020CC0023F00103BB63FB681B681433BA6B3A62E1
:1020DC00FB61F9693A6A41E80023BB61BB69002BDB
:1020EC00E5D1FB68202283F84120FB68202283F88D
:1020FC004220FB68002283F8402003230FE0FB689A
:10210C001B681A68BB681340BA689A420CBF01235B
:10211C000023DBB21A46FB799A429FD00023184663
:10212C004037BD4680BD000080B584B000AF7860FC
:10213C007B681B681B6923F440517B68DA687B68F9
:10214C001B680A431A617B689A687B681B691A438F
:10215C007B685B691343BB607B681B68DB6823F49B
:10216C00B05323F00C037A681268B9680B43D36040
:10217C007B681B685B6923F440717B689A697B6898
:10218C001B680A435A617B681B682C4A934203D133
:10219C00FFF750FAF86002E0FFF738FAF860FA68D7
:1021AC0013469B0013449A001A447B685B689B009F
:1021BC00B2FBF3F3224AA2FB03235B091901FA6871
:1021CC0013469B0013449A001A447B685B689B007F
:1021DC00B2FBF3F21A4BA3FB02035B09642000FB76
:1021EC0003F3D31A1B013233154AA2FB03235B09F9
:1021FC0003F0F0031944FA6813469B0013449A0049
:10220C001A447B685B689B00B2FBF3F20C4BA3FB9C
:10221C0002035B09642000FB03F3D31A1B01323366
:10222C00074AA2FB03235B0903F00F027B681B68C0
:10223C000A449A6000BF1037BD4680BD003801408B
:10224C001F85EB510EB46FF0004100B59CB01DAB77
:10225C0002900690079104910848094953F8042B01
:10226C000591006802A9019300F08EF90022029BEF
:10227C001A701CB05DF804EB03B0704788000020A6
:10228C000802FFFF03460244934200D1704703F853
:10229C00011BF9E7014B1868704700BF880000204C
:1022AC0070B500260C4D0D4C641BA410A64209D130
:1022BC0000F07AFC00260A4D0A4C641BA410A642BE
:1022CC0005D170BD55F8043B98470136EEE755F83B
:1022DC00043B98470136F2E7342C0008342C0008F4
:1022EC00342C0008382C00087047704738B5054668
:1022FC00002940D051F8043C0C1F002BB8BFE41847
:10230C0000F0DCF81C4A136833B96360146028468B
:10231C00BDE8384000F0D8B8A34208D9206821188D
:10232C008B4201BF19685B6809182160EDE71A46FA
:10233C005B680BB1A342FAD911685018A0420BD1BB
:10234C0020680144501883421160E0D118685B6822
:10235C00084410605360DAE702D90C232B60D6E7EF
:10236C00206821188B4201BF19685B68091821602D
:10237C0063605460CBE738BDB802002070B50E4ED8
:10238C000C463168054611B900F0AAFB30602146B5
:10239C00284600F0A5FB431C0AD0C41C24F00304FF
:1023AC00A04207D0211A284600F09AFB013001D137
:1023BC004FF0FF34204670BDBC0200202DE9F843DD
:1023CC00CD1C25F0030508350C2D38BF0C25002D30
:1023DC00074601DBA94205D90C2300263B60304699
:1023EC00BDE8F883DFF8D08000F068F8D8F800304A
:1023FC001C465CBB29463846FFF7C0FF431C04460D
:10240C0055D1D8F800402646002E45D1002C48D096
:10241C0023683146384604EB030900F061FB814523
:10242C003FD1216838466D1A2946FFF7A7FF0130C6
:10243C0037D023682B442360D8F80030002B38D0D9
:10244C005A68A2422BD100225A600FE02268521B1C
:10245C001FD40B2A17D96119A342256018BF5960E4
:10246C00636808BFC8F8001062514B60384604F12D
:10247C000B0600F029F826F00706231DF21AAED041
:10248C009B1BA350ABE7A3426268DDD1C8F80020C8
:10249C00ECE723466468ACE734467668B4E7134649
:1024AC00CCE70C2338463B6000F00EF897E725602C
:1024BC00DCE75B60FFDE00BFB80200200148FFF7DD
:1024CC0013BF00BFB40200200148FFF70EBF00BFCE
:1024DC00B40200202DE9F0471F468E688246BE42AA
:1024EC000C4690460B682CD88A8912F4906F26D033
:1024FC006569096905EB4505A3EB010905EBD57584
:10250C007B1C4B446D109D4238BF1D46530527D58F
:10251C002946FFF753FF064660B34A46216900F08F
:10252C00FDFAA38923F4906343F08003A381266111
:10253C004E4426603E466561A5EB0905A560BE428A
:10254C0000D93E4632464146206800F0AFFA0020E2
:10255C00A3689B1BA360236833442360BDE8F0870A
:10256C002A4600F0E9FA06460028E0D150462169D7
:10257C00FFF7BCFE0C23CAF80030A3894FF0FF30E4
:10258C0043F04003A381E9E72DE9F04F98468B898E
:10259C0007461B060D4614469DB00ED50B6963B954
:1025AC004021FFF70BFF2860286120B90C233B600A
:1025BC004FF0FF30D0E040236B61002309932023C0
:1025CC008DF8293030234FF00109CDF80C80DFF85D
:1025DC00A0818DF82A3023469A4613F8012B0AB1B4
:1025EC00252AF9D1BAEB040B0BD05B4622462946BF
:1025FC003846FFF76FFF013000F0A980099A5A4462
:10260C0009929AF80030002B00F0A18000234FF0C3
:10261C00FF32CDE905230AF1010A049307938DF8E3
:10262C0053301A935446052214F8011B504800F0FD
:10263C0067FA049AD8B9D00644BF20238DF85330DA
:10264C00110744BF2B238DF853309AF800302A2BF6
:10265C0015D0544600204FF00A0C079A214611F869
:10266C00013B303B092B4DD9B0B1079214E0A0EBE4
:10267C00080309FA03F31343A2460493D2E7039B1E
:10268C00191D1B680391002BBBBF5B4242F0020279
:10269C0007930793B8BF049223782E2B0CD1637841
:1026AC002A2B34D1039B02341A1D1B680392002B76
:1026BC00B8BF4FF0FF330593DFF8B8A003225046A4
:1026CC00217800F01DFA38B14022049BA0EB0A00DF
:1026DC00824013430134049314F8011B062226484C
:1026EC008DF8281000F00CFA002838D0234B1BBBB7
:1026FC00039B073323F0070308330393099B3344ED
:10270C00099368E70C4601200CFB0232A6E7002374
:10271C004FF00A0C194601340593204610F8012B92
:10272C00303A092A03D9002BC6D00591C4E70446D8
:10273C0001230CFB0121F0E703AB00932A4638463A
:10274C000F4B04A9AFF30080421C0646D6D1AB89CF
:10275C005B063FF52DAF09981DB0BDE8F08F03ABBC
:10276C0000932A463846064B04A900F07DF8EBE7A7
:10277C00FE2B0008042C0008082C000800000000A8
:10278C00E12400082DE9F047164699468A680B6942
:10279C0007469342B8BF1346336091F843200C466A
:1027AC00DDF820800AB1013333602368990642BFFB
:1027BC00336802333360256815F0060506D104F141
:1027CC00190AE36832689B1AAB422BDC94F843205D
:1027DC00131E226818BF0123920630D4494638468E
:1027EC0004F14302C047013023D02368226903F06F
:1027FC000603042B14BF002533684FF0000608BFF6
:10280C00E56804F11A0408BFED1A54F8123C08BF2D
:10281C0025EAE5759342C4BF9B1AED18B5421AD14F
:10282C00002008E00123524649463846C047013093
:10283C0003D14FF0FF30BDE8F0870135C1E7302000
:10284C00E11881F843005A1C94F8451022440233D5
:10285C0082F84310C2E70123224649463846C04756
:10286C000130E6D00136D9E72DE9FF470F7E9146BE
:10287C00782F80460C469A460C9D01F1430207D8EE
:10288C00622F0AD8002F00F0D580582F00F0C1809D
:10289C0004F1420584F842703AE0A7F16303152B6A
:1028AC00F6D801A151F823F00D29000821290008C0
:1028BC009D2800089D2800089D2800089D280008D8
:1028CC00212900089D2800089D2800089D28000843
:1028DC009D280008272A00084D290008E129000836
:1028EC009D2800089D280008492A00089D280008FA
:1028FC004D2900089D2800089D280008E92900089A
:10290C002B681A1D1B682A6004F1420584F84230BA
:10291C000123A0E020682B68070603F1040129605D
:10292C0001D51E6803E04606FBD5B3F90060002E06
:10293C0003DA2D23764284F843300A23594812E0F7
:10294C002B682068191D2960050601D51E6802E058
:10295C004106FBD51E886F2F0CBF08230A23514854
:10296C00002184F843106568002DA8BF2168A5607C
:10297C00A4BF21F0040121600EB9002D4BD01546E7
:10298C00B6FBF3F103FB1167C75D05F8017D374614
:10299C00BB420E46F4D9082B0BD12368DE0708D5B1
:1029AC00236961689942DEBF302305F8013C05F1CB
:1029BC00FF35521B22614B4621464046CDF800A004
:1029CC0003AAFFF7DFFE01304AD14FF0FF3004B00D
:1029DC00BDE8F087236843F0200323607827324852
:1029EC0084F84570236829681F0651F8046B02D4DB
:1029FC005F0648BFB6B2DF0748BF43F0200329602B
:102A0C0048BF23601EB9236823F0200323601023E2
:102A1C00A6E72448E4E71546BDE72B682668181D91
:102A2C006169286035061B6801D5196002E07006E3
:102A3C00FBD51980002315462361BCE72B680021C8
:102A4C001A1D2A601D686268284600F059F808B102
:102A5C00401B606063682361002384F84330AAE75D
:102A6C002A46494640462369D0470130ADD02368F9
:102A7C009B0713D4E068039B9842B8BF1846A6E79F
:102A8C000123324649464046D04701309DD001359E
:102A9C00E36803995B1AAB42F2DCEBE7002504F127
:102AAC001906F5E70F2C0008202C0008884210B5F9
:102ABC0001EB020402D98442234607D8431EA142EB
:102ACC0008D011F8012B03F8012FF8E70146024456
:102ADC008A4200D110BD13F8014D02F8014DF7E701
:102AEC0038B50023054D044608462B60FDF71AFE49
:102AFC00431C02D12B6803B1236038BDB002002007
:102B0C00034610B5C9B202449342184601D10020C5
:102B1C0003E0047801338C42F6D110BD0A44914293
:102B2C0000F1FF3300D1704710B511F8014B914201
:102B3C0003F8014FF9D110BD2DE9F0418046144640
:102B4C000E4621B91146BDE8F041FFF737BC2AB952
:102B5C00FFF7CCFB25462846BDE8F08100F01BF8BA
:102B6C008442074602D8B4EB500F12D82146404697
:102B7C00FFF724FC05460028EDD0BC422246314626
:102B8C0028BF3A46FFF7CAFF31464046FFF7AEFB77
:102B9C00E1E73546DFE751F8043C181F002BBCBFBA
:102BAC000B58C01870470000F8B500BFF8BC08BC43
:102BBC009E467047F8B500BFF8BC08BC9E467047EF
:102BCC00256C64200A0000000000000000000000DA
:102BDC0001020304060708090000000001020304B7
:102BEC0002030405060708090A0B0C0D0E0F101042
:102BFC000102232D302B2000686C4C006566674564
:102C0C004647003031323334353637383941424358
:102C1C004445460030313233343536373839616209
:082C2C0063646566000000000E
:042C34003101000862
:042C38000D01000882
:102C3C00646179206C61206368756F690A0000001B
:102C4C003030303030300A003131313131310A001E
:102C5C003434343434340A003535353535350A00DE
:102C6C000024F4001000000001000000000000002F
:102C7C0078010020E0010020480200200000000044
:102C8C000000000000000000000000000000000038
:102C9C000000000000000000000000000000000028
:102CAC000000000000000000000000000000000018
:0C2CBC0000000000000000003C000020B0
:04000005080007A93F
:00000001FF
