:020000040800F2
:100000000050002081050008B9040008BF04000862
:10001000C5040008CB040008D1040008000000005B
:10002000000000000000000000000000D7040008ED
:10003000E304000800000000EF040008FB040008CF
:10004000C9050008C9050008C9050008C905000858
:10005000C9050008C9050008C9050008C905000848
:10006000C9050008C9050008C9050008C905000838
:10007000C9050008C9050008C9050008C905000828
:10008000C9050008C9050008C9050008C905000818
:10009000C9050008C9050008C9050008C905000808
:1000A000C9050008C9050008C9050008C9050008F8
:1000B000C9050008C9050008C9050008C9050008E8
:1000C000C9050008C9050008C9050008C9050008D8
:1000D000C9050008C9050008C9050008C9050008C8
:1000E000C9050008C9050008C9050008000000008E
:1000F0000000000000000000000000000000000000
:0C01000000000000000000005FF808F1A3
:10010C0010B5054C237833B9044B13B10448AFF345
:10011C0000800123237010BD5C0000200000000053
:10012C008428000808B5034B1BB103490348AFF3FF
:10013C00008008BD0000000060000020842800083A
:10014C00034613F8012B002AFBD1181A013870470B
:10015C0080B598B000AF00F033FA00F029F800F049
:10016C00DFF800F0B3F800F073F80E4800F086FBEF
:10017C000C4800F031FCF8653B46FA6D0A4918460C
:10018C0001F0C8FE3B461846FFF7DAFF03469AB269
:10019C0039460A23054801F03DFD4FF4FA6000F0A2
:1001AC0071FAE5E7780000209C280008A8000020E0
:1001BC0080B594B000AF07F128032822002118461F
:1001CC0001F0C8FE07F1140300221A605A609A600D
:1001DC00DA601A613B1D00221A605A609A60DA607C
:1001EC000223BB620123BB631023FB6300237B64EC
:1001FC0007F12803184600F0F7FF0346002B01D047
:10020C0000F0A4F80F237B610023BB610023FB618A
:10021C0000233B6200237B6207F114030021184684
:10022C0001F064FA0346002B01D000F08FF8022392
:10023C007B600023FB603B1D184601F0E5FB034689
:10024C00002B01D000F082F800BF5037BD4680BDB6
:10025C0080B584B000AF3B1D00221A605A609A60D2
:10026C00184B194A1A60174B00229A60154B012241
:10027C001A73144B00221A75124B4FF46022DA6178
:10028C00104B00225A600F4B01221A610D4800F0EE
:10029C001DFA0346002B01D000F058F807237B60B1
:1002AC000123BB600023FB603B1D1946054800F091
:1002BC009FFB0346002B01D000F048F800BF10371D
:1002CC00BD4680BD780000200028014080B500AFFD
:1002DC00114B124A1A60104B4FF4E1325A600E4B1C
:1002EC0000229A600C4B0022DA600B4B00221A6140
:1002FC00094B0C225A61084B00229A61064B0022D2
:10030C00DA61054801F036FC0346002B01D000F001
:10031C001DF800BF80BD00BFA800002000380140C0
:10032C0080B483B000AF084B9B69074A43F00403C9
:10033C009361054B9B6903F004037B607B6800BFF2
:10034C000C37BD4680BC70470010024080B400AF33
:10035C0072B600BFFEE7000080B483B000AF0E4B56
:10036C009B690D4A43F0010393610B4B9B6903F0AE
:10037C0001037B607B68084BDB69074A43F08053C1
:10038C00D361054BDB6903F080533B603B6800BFD6
:10039C000C37BD4680BC70470010024080B588B059
:1003AC0000AF786007F1100300221A605A609A605F
:1003BC00DA607B681B68144A934221D1134B9B690A
:1003CC00124A43F480639361104B9B6903F480637E
:1003DC00FB60FB680D4B9B690C4A43F00403936173
:1003EC000A4B9B6903F00403BB60BB6880233B6131
:1003FC0003237B6107F110031946054800F070FDDB
:10040C0000BF2037BD4680BD0028014000100240CF
:10041C000008014080B588B000AF786007F1100388
:10042C0000221A605A609A60DA607B681B681C4A6A
:10043C00934231D11B4B9B691A4A43F4804393611D
:10044C00184B9B6903F48043FB60FB68154B9B695D
:10045C00144A43F004039361124B9B6903F00403A9
:10046C00BB60BB684FF400733B6102237B610323C9
:10047C00FB6107F1100319460B4800F031FD4FF4F6
:10048C0080633B6100237B610023BB6107F1100398
:10049C001946054800F024FD00BF2037BD4680BD3D
:1004AC0000380140001002400008014080B400AF49
:1004BC00FEE780B400AFFEE780B400AFFEE780B487
:1004CC0000AFFEE780B400AFFEE780B400AF00BF22
:1004DC00BD4680BC704780B400AF00BFBD4680BC39
:1004EC00704780B400AF00BFBD4680BC704780B57C
:1004FC0000AF00F0ABF800BF80BD000080B586B047
:10050C0000AF7860144A154BD31A7B617B693B6151
:10051C00134B1B68002B02D1114B124A1A60104B63
:10052C001A687B6813443A699A4207D201F01AFDA3
:10053C0003460C221A604FF0FF3309E0084B1B688E
:10054C00FB60074B1A687B681344054A1360FB6811
:10055C0018461837BD4680BD00500020000400002E
:10056C00F00000204002002080B400AF00BFBD4668
:10057C0080BC7047FFF7F8FF0B480C490C4A00236E
:10058C0002E0D458C4500433C4188C42F9D3094A3D
:10059C00094C002301E013600432A242FBD301F0AA
:1005AC00E7FCFFF7D5FD7047000000205C00002041
:1005BC000C2900085C00002040020020FEE700002F
:1005CC0080B500AF084B1B68074A43F0100313605B
:1005DC00032000F051FC0F2000F008F8FFF7BCFEE0
:1005EC000023184680BD00BF0020024080B582B0B9
:1005FC0000AF7860124B1A68124B1B7819464FF4F7
:10060C007A73B3FBF1F3B2FBF3F3184600F05BFC27
:10061C000346002B01D001230EE07B680F2B0AD878
:10062C00002279684FF0FF3000F031FC064A7B68FD
:10063C001360002300E0012318460837BD4680BD37
:10064C0000000020080000200400002080B400AF4F
:10065C00054B1B781A46054B1B681344034A136061
:10066C0000BFBD4680BC704708000020F40000208D
:10067C0080B400AF024B1B681846BD4680BC704767
:10068C00F400002080B584B000AF7860FFF7F0FF75
:10069C00B8607B68FB60FB68B3F1FF3F05D00A4B89
:1006AC001B781A46FB681344FB6000BFFFF7E0FFA2
:1006BC000246BB68D31AFA689A42F7D800BF00BF4B
:1006CC001037BD4680BD00BF0800002080B586B045
:1006DC0000AF78600023FB7500233B610023BB60F7
:1006EC000023FB607B68002B01D10123BEE07B68FB
:1006FC009B68002B7B689B6A002B09D17B680022CE
:10070C00DA627B68002283F824207868FFF746FEC3
:10071C00786800F0BFFA0346FB757B689B6A03F0B0
:10072C001003002B40F09980FB7D002B40F095804E
:10073C007B689B6A23F4885323F0020343F0020284
:10074C007B689A627B685A687B68DB691A437B68B2
:10075C001B7B5B001343BA681343BB607B689B68CD
:10076C00B3F5807F03D07B689B68012B02D14FF4DB
:10077C00807300E000233A6913433B617B681B7D67
:10078C00012B19D17B681B7B002B09D17B689B69E2
:10079C00013B5A033B69134343F400633B610BE099
:1007AC007B689B6A43F020027B689A627B68DB6AF9
:1007BC0043F001027B68DA627B681B685B6823F498
:1007CC0069417B681B683A690A435A607B681B68FD
:1007DC009A68284B13407A681268B9680B43936087
:1007EC007B689B68B3F5807F03D07B689B68012B8B
:1007FC0004D17B681B69013B1B05FB607B681B6894
:10080C00DB6A23F470017B681B68FA680A43DA62BE
:10081C007B681B689A68184B1340BA689A420BD1D4
:10082C007B680022DA627B689B6A23F0030343F047
:10083C0001027B689A6218E07B689B6A23F01203C2
:10084C0043F010027B689A627B68DB6A43F001021A
:10085C007B68DA620123FB7507E07B689B6A43F0D7
:10086C0010027B689A620123FB75FB7D18461837D2
:10087C00BD4680BDFDF7E1FFFE0E1FFF80B584B0C5
:10088C0000AF78600023FB737B6893F82430012B56
:10089C0001D1022398E07B68012283F82420786838
:1008AC0000F09EF90346FB73FB7B002B40F0878026
:1008BC007B689B6A23F4407323F0010343F480723A
:1008CC007B689A627B681B68414A934205D1414B15
:1008DC005B6803F47023002B15D17B689B6A23F4AF
:1008EC0080127B689A627B681B685B6803F4806388
:1008FC00002B26D07B689B6A23F4405343F4805230
:10090C007B689A621DE07B689B6A43F480127B686B
:10091C009A627B681B682F4A934204D07B681B68E1
:10092C002B4A93420DD12B4B5B6803F48063002B55
:10093C0007D07B689B6A23F4405343F480527B6856
:10094C009A627B689B6A03F48053002B06D07B6809
:10095C00DB6A23F006027B68DA6202E07B68002225
:10096C00DA627B68002283F824207B681B686FF0B6
:10097C0002021A607B681B689B6803F46023B3F562
:10098C00602F13D17B681B68114A934205D1114B20
:10099C005B6803F47023002B08D17B681B689A6892
:1009AC007B681B6842F4A0029A600CE07B681B68B1
:1009BC009A687B681B6842F480129A6003E07B683B
:1009CC00002283F82420FB7B18461037BD4680BDDF
:1009DC00002801400024014080B483B000AF78604F
:1009EC007B681B68DB6C18460C37BD4680BC7047B7
:1009FC0080B485B000AF786039600023FB730023AE
:100A0C00BB607B6893F82430012B01D10223DCE01E
:100A1C007B68012283F824203B685B68062B1CD87A
:100A2C007B681B68596B3B685A6813469B001344E0
:100A3C00053B1F2202FA03F3DB4319403B6818689D
:100A4C003B685A6813469B001344053B00FA03F2BB
:100A5C007B681B680A435A633CE03B685B680C2B61
:100A6C001CD87B681B68196B3B685A6813469B0043
:100A7C001344233B1F2202FA03F3DB4319403B6868
:100A8C0018683B685A6813469B001344233B00FAD2
:100A9C0003F27B681B680A431A631BE07B681B68C4
:100AAC00D96A3B685A6813469B001344413B1F228A
:100ABC0002FA03F3DB4319403B6818683B685A6839
:100ACC0013469B001344413B00FA03F27B681B68FE
:100ADC000A43DA623B681B68092B1CD97B681B68CC
:100AEC00D9683B681A6813465B0013441E3B072207
:100AFC0002FA03F3DB4319403B6898683B681A68B9
:100B0C0013465B0013441E3B00FA03F27B681B6820
:100B1C000A43DA6019E07B681B6819693B681A683C
:100B2C0013465B001344072202FA03F3DB4319401C
:100B3C003B6898683B681A6813465B00134400FADC
:100B4C0003F27B681B680A431A613B681B68102B15
:100B5C0003D03B681B68112B32D17B681B681D4A84
:100B6C00934225D17B681B689B6803F40003002B20
:100B7C0026D17B681B689A687B681B6842F400026C
:100B8C009A603B681B68102B1AD1134B1B68134AD5
:100B9C00A2FB03239A0C13469B0013445B00BB601F
:100BAC0002E0BB68013BBB60BB68002BF9D107E0DE
:100BBC007B689B6A43F020027B689A620123FB737B
:100BCC007B68002283F82420FB7B18461437BD4633
:100BDC0080BC7047002401400000002083DE1B43D2
:100BEC0080B584B000AF78600023FB600023BB604D
:100BFC007B681B689B6803F00103012B40D07B686A
:100C0C001B689A687B681B6842F001029A601F4B54
:100C1C001B681F4AA2FB03239B0CBB6002E0BB6852
:100C2C00013BBB60BB68002BF9D1FFF721FDF860DD
:100C3C001FE0FFF71DFD0246FB68D31A022B18D9E3
:100C4C007B681B689B6803F00103012B11D07B6848
:100C5C009B6A43F010027B689A627B68DB6A43F004
:100C6C0001027B68DA627B68002283F8242001236E
:100C7C0007E07B681B689B6803F00103012BD8D14C
:100C8C00002318461037BD4680BD00BF0000002071
:100C9C0083DE1B4380B584B000AF78600023FB601B
:100CAC007B681B689B6803F00103012B2ED17B68CA
:100CBC001B689A687B681B6822F001029A60FFF738
:100CCC00D7FCF8601BE0FFF7D3FC0246FB68D31A95
:100CDC00022B14D97B681B689B6803F00103012B62
:100CEC000DD17B689B6A43F010027B689A627B682B
:100CFC00DB6A43F001027B68DA62012307E07B6860
:100D0C001B689B6803F00103012BDCD00023184601
:100D1C001037BD4680BD000080B485B000AF786050
:100D2C007B6803F00703FB600C4BDB68BB60BA68A5
:100D3C004FF6FF031340BB60FB681A02BB681343FA
:100D4C0043F0BF6343F40033BB60044ABB68D36019
:100D5C0000BF1437BD4680BC704700BF00ED00E0FB
:100D6C0080B400AF044BDB681B0A03F00703184682
:100D7C00BD4680BC704700BF00ED00E080B483B07E
:100D8C0000AF03463960FB7197F90730002B0ADB83
:100D9C003B68DAB20C4997F907301201D2B20B4416
:100DAC0083F800230AE03B68DAB20849FB7903F0C8
:100DBC000F03043B1201D2B20B441A7600BF0C375E
:100DCC00BD4680BC704700BF00E100E000ED00E0D4
:100DDC0080B489B000AFF860B9607A60FB6803F04A
:100DEC000703FB61FB69C3F10703042B28BF042332
:100DFC00BB61FB690433062B02D9FB69033B00E0A2
:100E0C0000237B614FF0FF32BB6902FA03F3DA4334
:100E1C00BB681A407B699A404FF0FF317B6901FA3D
:100E2C0003F3D9437B680B40134318462437BD4664
:100E3C0080BC704780B582B000AF78607B68013BA6
:100E4C00B3F1807F01D301230FE00A4A7B68013B99
:100E5C0053600F214FF0FF30FFF790FF054B00223E
:100E6C009A60044B07221A60002318460837BD46C7
:100E7C0080BD00BF10E000E080B582B000AF7860AC
:100E8C007868FFF749FF00BF0837BD4680BD80B5C5
:100E9C0086B000AF0346B9607A60FB7300237B61B8
:100EAC00FFF75EFF78617A68B9687869FFF790FFA1
:100EBC00024697F90F3011461846FFF75FFF00BF47
:100ECC001837BD4680BD80B582B000AF78607868B9
:100EDC00FFF7B0FF034618460837BD4680BD00003B
:100EEC0080B48BB000AF7860396000237B62002344
:100EFC003B6269E101227B6A02FA03F3FB613B6806
:100F0C001B68FA691340BB61BA69FB699A4240F0ED
:100F1C0058813B685B689A4A93425ED0984A9342E8
:100F2C0075D8984A934258D0964A93426FD8964AAD
:100F3C00934252D0944A934269D8944A93424CD0EB
:100F4C00924A934263D8924A934246D0904A934233
:100F5C005DD8122B2AD8122B59D801A252F823F0A3
:100F6C00E70F0008C10F0008D30F00081510000888
:100F7C001B1000081B1000081B1000081B10000899
:100F8C001B1000081B1000081B1000081B10000889
:100F9C001B1000081B1000081B1000081B10000879
:100FAC001B100008C90F0008DD0F0008794A934296
:100FBC0013D02CE03B68DB683B6229E03B68DB68C4
:100FCC0004333B6224E03B68DB6808333B621FE080
:100FDC003B68DB680C333B621AE03B689B68002B78
:100FEC0002D104233B6213E03B689B68012B05D1C3
:100FFC0008233B627B68FA691A6109E008233B62AB
:10100C007B68FA695A6103E000233B6200E000BF91
:10101C00BB69FF2B01D87B6801E07B6804337B61E3
:10102C00BB69FF2B02D87B6A9B0002E07B6A083B02
:10103C009B003B617B691A680F213B6901FA03F342
:10104C00DB431A40396A3B6901FA03F31A437B69A3
:10105C001A603B685B6803F08053002B00F0B18092
:10106C004D4B9B694C4A43F0010393614A4B9B697E
:10107C0003F00103BB60BB68484A7B6A9B080233E0
:10108C0052F82330FB607B6A03F003039B000F22B2
:10109C0002FA03F3DB43FA681340FB607B68404AB7
:1010AC00934213D07B683F4A93420DD07B683E4AF3
:1010BC00934207D07B683D4A934201D1032306E05B
:1010CC00042304E0022302E0012300E000237A6AF7
:1010DC0002F0030292009340FA681343FB602F491D
:1010EC007B6A9B080233FA6841F823203B685B68F3
:1010FC0003F48013002B06D02D4B9A682C49BB6946
:10110C0013438B6006E02A4B9A68BB69DB43284982
:10111C0013408B603B685B6803F40013002B06D014
:10112C00234BDA682249BB691343CB6006E0204BA2
:10113C00DA68BB69DB431E491340CB603B685B68D4
:10114C0003F40033002B06D0194B5A681849BB69BD
:10115C0013434B6006E0164B5A68BB69DB431449DA
:10116C0013404B603B685B6803F48033002B21D049
:10117C000F4B1A680E49BB6913430B6021E000BF8B
:10118C00000032100000311000002210000021106D
:10119C00000012100000111000100240000001406D
:1011AC0000080140000C01400010014000140140F7
:1011BC00000401400B4B1A68BB69DB43094913401F
:1011CC000B607B6A01337B623B681A687B6A22FA8C
:1011DC0003F3002B7FF48EAE00BF00BF2C37BD464F
:1011EC0080BC70470004014080B586B000AF7860C9
:1011FC007B68002B01D1012372E27B681B6803F032
:10120C000103002B00F08780924B5B6803F00C030A
:10121C00042B0CD08F4B5B6803F00C03082B12D102
:10122C008C4B5B6803F48033B3F5803F0BD1894B57
:10123C001B6803F40033002B6CD07B685B68002BBD
:10124C0068D101234CE27B685B68B3F5803F06D123
:10125C00804B1B687F4A43F4803313602EE07B681D
:10126C005B68002B0CD17B4B1B687A4A23F48033D0
:10127C001360784B1B68774A23F4802313601DE0BE
:10128C007B685B68B3F5A02F0CD1724B1B68714A5D
:10129C0043F4802313606F4B1B686E4A43F4803316
:1012AC0013600BE06B4B1B686A4A23F480331360AA
:1012BC00684B1B68674A23F4802313607B685B6868
:1012CC00002B13D0FFF7D4F9386108E0FFF7D0F901
:1012DC0002463B69D31A642B01D9032300E25D4B10
:1012EC001B6803F40033002BF0D014E0FFF7C0F9B7
:1012FC00386108E0FFF7BCF902463B69D31A642B4E
:10130C0001D90323ECE1534B1B6803F40033002B8E
:10131C00F0D100E000BF7B681B6803F00203002BD8
:10132C0063D04C4B5B6803F00C03002B0BD0494B88
:10133C005B6803F00C03082B1CD1464B5B6803F471
:10134C008033002B16D1434B1B6803F00203002B98
:10135C0005D07B681B69012B01D00123C0E13D4BFB
:10136C001B6823F0F8027B685B69DB003949134387
:10137C000B603AE07B681B69002B20D0364B0122B6
:10138C001A60FFF775F9386108E0FFF771F902464A
:10139C003B69D31A022B01D90323A1E12D4B1B6806
:1013AC0003F00203002BF0D02A4B1B6823F0F80249
:1013BC007B685B69DB00274913430B6015E0264B08
:1013CC0000221A60FFF754F9386108E0FFF750F972
:1013DC0002463B69D31A022B01D9032380E11D4B32
:1013EC001B6803F00203002BF0D17B681B6803F031
:1013FC000803002B3AD07B689B69002B19D0174B44
:10140C0001221A60FFF734F9386108E0FFF730F970
:10141C0002463B69D31A022B01D9032360E10D4B21
:10142C005B6A03F00203002BF0D0012000F0CEFA2F
:10143C001CE00A4B00221A60FFF71AF938610FE022
:10144C00FFF716F902463B69D31A022B08D903237E
:10145C0046E100BF001002400000424280044242BC
:10146C00924B5B6A03F00203002BE9D17B681B688B
:10147C0003F00403002B00F0A6800023FB758B4BBC
:10148C00DB6903F08053002B0DD1884BDB69874A55
:10149C0043F08053D361854BDB6903F08053BB6011
:1014AC00BB680123FB75824B1B6803F48073002B14
:1014BC0018D17F4B1B687E4A43F480731360FFF78F
:1014CC00D7F8386108E0FFF7D3F802463B69D31A26
:1014DC00642B01D9032303E1754B1B6803F4807360
:1014EC00002BF0D07B68DB68012B06D16F4B1B6A9D
:1014FC006E4A43F0010313622DE07B68DB68002B1E
:10150C000CD16A4B1B6A694A23F001031362674BC7
:10151C001B6A664A23F0040313621CE07B68DB68D9
:10152C00052B0CD1614B1B6A604A43F00403136218
:10153C005E4B1B6A5D4A43F0010313620BE05B4B8D
:10154C001B6A5A4A23F001031362584B1B6A574A11
:10155C0023F0040313627B68DB68002B15D0FFF7C4
:10156C0087F838610AE0FFF783F802463B69D31A23
:10157C0041F28832934201D90323B1E04B4B1B6AF1
:10158C0003F00203002BEED014E0FFF771F8386182
:10159C000AE0FFF76DF802463B69D31A41F2883234
:1015AC00934201D903239BE0404B1B6A03F00203D7
:1015BC00002BEED1FB7D012B05D13C4BDB693B4A6B
:1015CC0023F08053D3617B68DB69002B00F08780AC
:1015DC00364B5B6803F00C03082B61D07B68DB692E
:1015EC00022B46D1334B00221A60FFF741F83861C9
:1015FC0008E0FFF73DF802463B69D31A022B01D9EC
:10160C0003236DE0294B1B6803F00073002BF0D112
:10161C007B681B6AB3F5803F08D1244B5B6823F4CD
:10162C0000327B689B68214913434B601F4B5B68FE
:10163C0023F474127B68196A7B685B6A0B431B4941
:10164C0013434B601B4B01221A60FFF711F83861F2
:10165C0008E0FFF70DF802463B69D31A022B01D9BB
:10166C0003233DE0114B1B6803F00073002BF0D0FB
:10167C0035E0104B00221A60FEF7FAFF386108E0E3
:10168C00FEF7F6FF02463B69D31A022B01D903235E
:10169C0026E0064B1B6803F00073002BF0D11EE014
:1016AC007B68DB69012B07D1012319E00010024094
:1016BC0000700040600042420B4B5B68FB60FB68B3
:1016CC0003F480327B681B6A9A4206D1FB6803F4F0
:1016DC0070127B685B6A9A4201D0012300E0002300
:1016EC0018461837BD4680BD0010024080B584B046
:1016FC0000AF786039607B68002B01D10123D0E00A
:10170C006A4B1B6803F007033A689A4210D9674B7F
:10171C001B6823F0070265493B6813430B60634B5E
:10172C001B6803F007033A689A4201D00123B8E022
:10173C007B681B6803F00203002B20D07B681B68BE
:10174C0003F00403002B05D0594B5B68584A43F453
:10175C00E06353607B681B6803F00803002B05D023
:10176C00534B5B68524A43F460535360504B5B6875
:10177C0023F0F0027B689B684D4913434B607B68F8
:10178C001B6803F00103002B40D07B685B68012BC6
:10179C0007D1474B1B6803F40033002B15D10123F1
:1017AC007FE07B685B68022B07D1414B1B6803F021
:1017BC000073002B09D1012373E03D4B1B6803F030
:1017CC000203002B01D101236BE0394B5B6823F042
:1017DC0003027B685B68364913434B60FEF748FF96
:1017EC00F8600AE0FEF744FF0246FB68D31A41F2A8
:1017FC008832934201D9032353E02D4B5B6803F0ED
:10180C000C027B685B689B009A42EBD1274B1B68F0
:10181C0003F007033A689A4210D2244B1B6823F05A
:10182C00070222493B6813430B60204B1B6803F0F3
:10183C0007033A689A4201D0012332E07B681B68A7
:10184C0003F00403002B08D0194B5B6823F4E0620F
:10185C007B68DB68164913434B607B681B6803F09D
:10186C000803002B09D0124B5B6823F460527B6891
:10187C001B69DB000E4913434B6000F021F8024654
:10188C000B4B5B681B0903F00F030A49CB5C22FA74
:10189C0003F3094A1360094B1B681846FEF7A6FEB2
:1018AC00002318461037BD4680BD00BF0020024003
:1018BC0000100240A42800080000002004000020B2
:1018CC0080B487B000AF0023FB600023BB60002313
:1018DC007B6100237B6000233B611E4B5B68FB60DC
:1018EC00FB6803F00C03042B02D0082B03D027E079
:1018FC00194B3B6127E0FB689B0C03F00F03174A65
:10190C00D35C7B60FB6803F48033002B10D0114B4D
:10191C005B685B0C03F00103114AD35CBB607B6812
:10192C000D4A03FB02F2BB68B2FBF3F37B6104E0EC
:10193C007B680C4A02FB03F37B617B693B6102E031
:10194C00054B3B6100BF3B6918461C37BD4680BC4C
:10195C00704700BF0010024000127A00BC2800083B
:10196C00CC28000800093D0080B400AF024B1B6876
:10197C001846BD4680BC70470000002080B500AF03
:10198C00FFF7F2FF0246054B5B681B0A03F00703E7
:10199C000349CB5C22FA03F3184680BD00100240C9
:1019AC00B428000880B500AFFFF7DEFF0246054BF8
:1019BC005B68DB0A03F007030349CB5C22FA03F3F1
:1019CC00184680BD00100240B428000880B485B0D1
:1019DC0000AF78600A4B1B680A4AA2FB03235B0A20
:1019EC007A6802FB03F3FB6000BFFB685A1EFA60C7
:1019FC00002BF9D100BF00BF1437BD4680BC704727
:101A0C0000000020D34D621080B586B000AF786026
:101A1C0000233B610023FB607B681B6803F0010320
:101A2C00002B7DD00023FB754F4BDB6903F08053FB
:101A3C00002B0DD14C4BDB694B4A43F08053D361E7
:101A4C00494BDB6903F08053BB60BB680123FB751A
:101A5C00464B1B6803F48073002B18D1434B1B6857
:101A6C00424A43F480731360FEF702FE386108E0CB
:101A7C00FEF7FEFD02463B69D31A642B01D9032302
:101A8C006DE03A4B1B6803F48073002BF0D0364B9F
:101A9C001B6A03F44073FB60FB68002B2ED07B6841
:101AAC005B6803F44073FA689A4227D02E4B1B6A8A
:101ABC0023F44073FB602E4B01221A602C4B002246
:101ACC001A60294AFB681362FB6803F00103002BC0
:101ADC0014D0FEF7CDFD38610AE0FEF7C9FD0246D1
:101AEC003B69D31A41F28832934201D9032336E081
:101AFC001D4B1B6A03F00203002BEED01A4B1B6A22
:101B0C0023F440727B685B68174913430B62FB7DBF
:101B1C00012B05D1144BDB69134A23F08053D3619D
:101B2C007B681B6803F00203002B08D00E4B5B682C
:101B3C0023F440427B689B680B4913434B607B68E2
:101B4C001B6803F01003002B08D0074B5B6823F4D1
:101B5C0080027B68DB68044913434B600023184602
:101B6C001837BD4680BD00BF001002400070004019
:101B7C004004424280B582B000AF78607B68002B95
:101B8C0001D1012342E07B6893F84130DBB2002B9A
:101B9C0006D17B68002283F840207868FEF73AFC77
:101BAC007B68242283F841207B681B68DA687B6899
:101BBC001B6822F40052DA60786800F01DF97B682B
:101BCC001B681A697B681B6822F490421A617B6857
:101BDC001B685A697B681B6822F02A025A617B6871
:101BEC001B68DA687B681B6842F40052DA607B6819
:101BFC0000225A647B68202283F841207B682022D3
:101C0C0083F842207B6800225A6300231846083769
:101C1C00BD4680BD80B58AB002AFF860B9603B604C
:101C2C001346FB8000237B61FB6893F84130DBB2E9
:101C3C00202B6DD1BB68002B02D0FB88002B01D16F
:101C4C00012366E0FB6800225A64FB68212283F8BA
:101C5C004120FEF70DFD7861FB68FA889A84FB68D9
:101C6C00FA88DA84FB689B68B3F5805F08D1FB685F
:101C7C001B69002B04D10023FB61BB68BB6103E033
:101C8C00BB68FB610023BB612AE03B6800937B6966
:101C9C0000228021F86800F040F80346002B01D0A8
:101CAC00032336E0FB69002B0BD1BB691B881A465A
:101CBC00FB681B68C2F308025A60BB690233BB6144
:101CCC0007E0FB691A78FB681B685A60FB690133F3
:101CDC00FB61FB68DB8C9BB2013B9AB2FB68DA843C
:101CEC00FB68DB8C9BB2002BCFD13B6800937B69EC
:101CFC0000224021F86800F010F80346002B01D0B8
:101D0C00032306E0FB68202283F84120002300E037
:101D1C00022318462037BD4680BD80B590B000AF79
:101D2C00F860B9603B601346FB7150E0BB6CB3F1DB
:101D3C00FF3F4CD0BB6C002B07D0FEF799FC024642
:101D4C003B68D31ABA6C9A4241D2FB681B680C33BD
:101D5C00BB62BB6A53E8003F7B627B6A23F4D0739F
:101D6C00FB63FB681B680C33FA6B7A633B63396B60
:101D7C007A6B41E80023FB62FB6A002BE5D1FB6820
:101D8C001B6814337B617B6953E8003F3B613B6903
:101D9C0023F00103BB63FB681B681433BA6B3A6214
:101DAC00FB61F9693A6A41E80023BB61BB69002B0E
:101DBC00E5D1FB68202283F84120FB68202283F8C0
:101DCC004220FB68002283F8402003230FE0FB68CD
:101DDC001B681A68BB681340BA689A420CBF01238F
:101DEC000023DBB21A46FB799A429FD00023184697
:101DFC004037BD4680BD000080B584B000AF786030
:101E0C007B681B681B6923F440517B68DA687B682C
:101E1C001B680A431A617B689A687B681B691A43C2
:101E2C007B685B691343BB607B681B68DB6823F4CE
:101E3C00B05323F00C037A681268B9680B43D36073
:101E4C007B681B685B6923F440717B689A697B68CB
:101E5C001B680A435A617B681B682C4A934203D166
:101E6C00FFF7A0FDF86002E0FFF788FDF860FA6864
:101E7C0013469B0013449A001A447B685B689B00D2
:101E8C00B2FBF3F3224AA2FB03235B091901FA68A4
:101E9C0013469B0013449A001A447B685B689B00B2
:101EAC00B2FBF3F21A4BA3FB02035B09642000FBA9
:101EBC0003F3D31A1B013233154AA2FB03235B092C
:101ECC0003F0F0031944FA6813469B0013449A007C
:101EDC001A447B685B689B00B2FBF3F20C4BA3FBD0
:101EEC0002035B09642000FB03F3D31A1B0132339A
:101EFC00074AA2FB03235B0903F00F027B681B68F4
:101F0C000A449A6000BF1037BD4680BD00380140BE
:101F1C001F85EB510EB46FF0004100B59CB01DABAA
:101F2C0002900690079104910848094953F8042B34
:101F3C000591006802A9019300F08EF90022029B22
:101F4C001A701CB05DF804EB03B070475800002009
:101F5C000802FFFF03460244934200D1704703F886
:101F6C00011BF9E7014B1868704700BF58000020AF
:101F7C0070B500260C4D0D4C641BA410A64209D163
:101F8C0000F07AFC00260A4D0A4C641BA410A642F1
:101F9C0005D170BD55F8043B98470136EEE755F86E
:101FAC00043B98470136F2E704290008042900088D
:101FBC0004290008082900087047704738B5054601
:101FCC00002940D051F8043C0C1F002BB8BFE4187A
:101FDC0000F0DCF81C4A136833B9636014602846BF
:101FEC00BDE8384000F0D8B8A34208D920682118C1
:101FFC008B4201BF19685B6809182160EDE71A462E
:10200C005B680BB1A342FAD911685018A0420BD1EE
:10201C0020680144501883421160E0D118685B6855
:10202C00084410605360DAE702D90C232B60D6E722
:10203C00206821188B4201BF19685B680918216060
:10204C0063605460CBE738BD3802002070B50E4E8B
:10205C000C463168054611B900F0AAFB30602146E8
:10206C00284600F0A5FB431C0AD0C41C24F0030432
:10207C00A04207D0211A284600F09AFB013001D16A
:10208C004FF0FF34204670BD3C0200202DE9F84390
:10209C00CD1C25F0030508350C2D38BF0C25002D63
:1020AC00074601DBA94205D90C2300263B603046CC
:1020BC00BDE8F883DFF8D08000F068F8D8F800307D
:1020CC001C465CBB29463846FFF7C0FF431C044640
:1020DC0055D1D8F800402646002E45D1002C48D0CA
:1020EC0023683146384604EB030900F061FB814557
:1020FC003FD1216838466D1A2946FFF7A7FF0130FA
:10210C0037D023682B442360D8F80030002B38D00C
:10211C005A68A2422BD100225A600FE02268521B4F
:10212C001FD40B2A17D96119A342256018BF596017
:10213C00636808BFC8F8001062514B60384604F160
:10214C000B0600F029F826F00706231DF21AAED074
:10215C009B1BA350ABE7A3426268DDD1C8F80020FB
:10216C00ECE723466468ACE734467668B4E713467C
:10217C00CCE70C2338463B6000F00EF897E725605F
:10218C00DCE75B60FFDE00BF380200200148FFF790
:10219C0013BF00BF340200200148FFF70EBF00BF81
:1021AC00340200202DE9F0471F468E688246BE425D
:1021BC000C4690460B682CD88A8912F4906F26D066
:1021CC006569096905EB4505A3EB010905EBD575B7
:1021DC007B1C4B446D109D4238BF1D46530527D5C3
:1021EC002946FFF753FF064660B34A46216900F0C3
:1021FC00FDFAA38923F4906343F08003A381266145
:10220C004E4426603E466561A5EB0905A560BE42BD
:10221C0000D93E4632464146206800F0AFFA002015
:10222C00A3689B1BA360236833442360BDE8F0873D
:10223C002A4600F0E9FA06460028E0D1504621690A
:10224C00FFF7BCFE0C23CAF80030A3894FF0FF3017
:10225C0043F04003A381E9E72DE9F04F98468B89C1
:10226C0007461B060D4614469DB00ED50B6963B987
:10227C004021FFF70BFF2860286120B90C233B603D
:10228C004FF0FF30D0E040236B61002309932023F3
:10229C008DF8293030234FF00109CDF80C80DFF890
:1022AC00A0818DF82A3023469A4613F8012B0AB1E7
:1022BC00252AF9D1BAEB040B0BD05B4622462946F2
:1022CC003846FFF76FFF013000F0A980099A5A4495
:1022DC0009929AF80030002B00F0A18000234FF0F7
:1022EC00FF32CDE905230AF1010A049307938DF817
:1022FC0053301A935446052214F8011B504800F031
:10230C0067FA049AD8B9D00644BF20238DF853300D
:10231C00110744BF2B238DF853309AF800302A2B29
:10232C0015D0544600204FF00A0C079A214611F89C
:10233C00013B303B092B4DD9B0B1079214E0A0EB17
:10234C00080309FA03F31343A2460493D2E7039B51
:10235C00191D1B680391002BBBBF5B4242F00202AC
:10236C0007930793B8BF049223782E2B0CD1637874
:10237C002A2B34D1039B02341A1D1B680392002BA9
:10238C00B8BF4FF0FF330593DFF8B8A003225046D7
:10239C00217800F01DFA38B14022049BA0EB0A0012
:1023AC00824013430134049314F8011B062226487F
:1023BC008DF8281000F00CFA002838D0234B1BBBEA
:1023CC00039B073323F0070308330393099B334420
:1023DC00099368E70C4601200CFB0232A6E70023A8
:1023EC004FF00A0C194601340593204610F8012BC6
:1023FC00303A092A03D9002BC6D00591C4E704460C
:10240C0001230CFB0121F0E703AB00932A4638466D
:10241C000F4B04A9AFF30080421C0646D6D1AB8902
:10242C005B063FF52DAF09981DB0BDE8F08F03ABEF
:10243C0000932A463846064B04A900F07DF8EBE7DA
:10244C00CE280008D4280008D82800080000000076
:10245C00B12100082DE9F047164699468A680B69A8
:10246C0007469342B8BF1346336091F843200C469D
:10247C00DDF820800AB1013333602368990642BF2E
:10248C00336802333360256815F0060506D104F174
:10249C00190AE36832689B1AAB422BDC94F8432090
:1024AC00131E226818BF0123920630D449463846C1
:1024BC0004F14302C047013023D02368226903F0A2
:1024CC000603042B14BF002533684FF0000608BF29
:1024DC00E56804F11A0408BFED1A54F8123C08BF61
:1024EC0025EAE5759342C4BF9B1AED18B5421AD183
:1024FC00002008E00123524649463846C0470130C7
:10250C0003D14FF0FF30BDE8F0870135C1E7302033
:10251C00E11881F843005A1C94F845102244023308
:10252C0082F84310C2E70123224649463846C04789
:10253C000130E6D00136D9E72DE9FF470F7E9146F1
:10254C00782F80460C469A460C9D01F1430207D821
:10255C00622F0AD8002F00F0D580582F00F0C180D0
:10256C0004F1420584F842703AE0A7F16303152B9D
:10257C00F6D801A151F823F0DD250008F12500085B
:10258C006D2500086D2500086D2500086D250008D7
:10259C00F12500086D2500086D2500086D25000843
:1025AC006D250008F72600081D260008B126000836
:1025BC006D2500086D250008192700086D250008F9
:1025CC001D2600086D2500086D250008B926000899
:1025DC002B681A1D1B682A6004F1420584F84230EE
:1025EC000123A0E020682B68070603F10401296091
:1025FC0001D51E6803E04606FBD5B3F90060002E3A
:10260C0003DA2D23764284F843300A23594812E02A
:10261C002B682068191D2960050601D51E6802E08B
:10262C004106FBD51E886F2F0CBF08230A23514887
:10263C00002184F843106568002DA8BF2168A560AF
:10264C00A4BF21F0040121600EB9002D4BD015461A
:10265C00B6FBF3F103FB1167C75D05F8017D374647
:10266C00BB420E46F4D9082B0BD12368DE0708D5E4
:10267C00236961689942DEBF302305F8013C05F1FE
:10268C00FF35521B22614B4621464046CDF800A037
:10269C0003AAFFF7DFFE01304AD14FF0FF3004B040
:1026AC00BDE8F087236843F0200323607827324885
:1026BC0084F84570236829681F0651F8046B02D40E
:1026CC005F0648BFB6B2DF0748BF43F0200329605E
:1026DC0048BF23601EB9236823F020032360102316
:1026EC00A6E72448E4E71546BDE72B682668181DC5
:1026FC006169286035061B6801D5196002E0700617
:10270C00FBD51980002315462361BCE72B680021FB
:10271C001A1D2A601D686268284600F059F808B135
:10272C00401B606063682361002384F84330AAE790
:10273C002A46494640462369D0470130ADD023682C
:10274C009B0713D4E068039B9842B8BF1846A6E7D2
:10275C000123324649464046D04701309DD00135D1
:10276C00E36803995B1AAB42F2DCEBE7002504F15A
:10277C001906F5E7DF280008F0280008884210B594
:10278C0001EB020402D98442234607D8431EA1421E
:10279C0008D011F8012B03F8012FF8E70146024489
:1027AC008A4200D110BD13F8014D02F8014DF7E734
:1027BC0038B50023054D044608462B60FDF79EFEF8
:1027CC00431C02D12B6803B1236038BD30020020BA
:1027DC00034610B5C9B202449342184601D10020F9
:1027EC0003E0047801338C42F6D110BD0A449142C7
:1027FC0000F1FF3300D1704710B511F8014B914235
:10280C0003F8014FF9D110BD2DE9F0418046144673
:10281C000E4621B91146BDE8F041FFF737BC2AB985
:10282C00FFF7CCFB25462846BDE8F08100F01BF8ED
:10283C008442074602D8B4EB500F12D821464046CA
:10284C00FFF724FC05460028EDD0BC422246314659
:10285C0028BF3A46FFF7CAFF31464046FFF7AEFBAA
:10286C00E1E73546DFE751F8043C181F002BBCBFED
:10287C000B58C01870470000F8B500BFF8BC08BC76
:10288C009E467047F8B500BFF8BC08BC9E46704722
:10289C00256C6420200D0A000000000000000000E0
:1028AC0001020304060708090000000001020304EA
:1028BC0002030405060708090A0B0C0D0E0F101075
:1028CC000102232D302B2000686C4C006566674597
:1028DC00464700303132333435363738394142438C
:1028EC00444546003031323334353637383961623D
:0828FC00636465660000000042
:042904003101000895
:042908000D010008B5
:10290C000024F40010000000010000000000000092
:10291C00F800002060010020C80100200000000029
:10292C00000000000000000000000000000000009B
:10293C00000000000000000000000000000000008B
:10294C00000000000000000000000000000000007B
:0C295C0000000000000000000C00002043
:040000050800058169
:00000001FF
