:020000040800F2
:1000000000000320A9040008990300089F030008CA
:10001000A5030008AB030008B103000800000000BE
:10002000000000000000000000000000B70300080E
:10003000C503000800000000D3030008E103000826
:100040000105000801050008010500080105000878
:100050000105000801050008010500080105000868
:100060000105000801050008010500080105000858
:100070000105000801050008010500080105000848
:100080000105000801050008010500080105000838
:100090000105000801050008010500080105000828
:1000A0000105000801050008010500080105000818
:1000B0000105000801050008010500080105000808
:1000C00001050008010500080105000801050008F8
:1000D00001050008010500080105000801050008E8
:1000E00001050008010500080105000801050008D8
:1000F00001050008010500080105000801050008C8
:1001000001050008010500080105000801050008B7
:1001100001050008010500080105000801050008A7
:100120000105000801050008010500080105000897
:0C01300001050008010500080105000899
:10013C0010B5054C237833B9044B13B10448AFF315
:10014C0000800123237010BD14000020000000006B
:10015C00CC26000808B5034B1BB103490348AFF389
:10016C00008008BD0000000018000020CC2600080C
:10017C0080B485B000AF78604FF0B043DA6C4FF0CC
:10018C00B0417B681343CB644FF0B043DA6C7B68AF
:10019C001340FB60FB6800BF1437BD465DF8047B61
:1001AC007047000080B500AF00F0A6F900F022F80F
:1001BC0000F076F800F098F800F08FF820210C4849
:1001CC0000F0B0FC4FF47A7000F01CFA01210848E2
:1001DC0000F0A8FC4FF47A7000F014FA02210448E5
:1001EC0000F0A0FC4FF47A7000F00CFAE6E700BFC8
:1001FC000004004880B59AB000AF07F120034822F4
:10020C000021184602F030FA3B1D00221A605A6099
:10021C009A60DA601A615A619A61204B1B6823F468
:10022C00C0631E4A43F4007313601C4B1B6803F439
:10023C00C0633B603B6803233B624FF480337B62BB
:10024C004FF48073FB6240233B630023FB6407F194
:10025C002003184600F0FCFF0346002B01D000F0F1
:10026C0089F86F237B600223BB600023FB600023B3
:10027C003B6100237B610023BB610023FB613B1DC1
:10028C000121184601F058FB0346002B01D000F069
:10029C0071F800BF6837BD4680BD00BF0004005830
:1002AC0080B594B000AF3B4650220021184602F0B6
:1002BC00DBF94FF400533B600023BB640023FB6469
:1002CC003B46184601F049FF0346002B01D000F0D5
:1002DC0051F800BF5037BD4680BD80B400AF00BFA1
:1002EC00BD465DF8047B704780B586B000AF3B1D02
:1002FC0000221A605A609A60DA601A610420FFF7D3
:10030C0037FF0220FFF734FF0820FFF731FF0022F0
:10031C002321154800F0EEFB10237B600023BB600B
:10032C000023FB603B1D1946104800F073FA232391
:10033C007B600123BB600023FB6000233B613B1D02
:10034C001946094800F066FA03237B600023BB6062
:10035C000023FB603B1D1946054800F05BFA00BF0B
:10036C001837BD4680BD00BF000400480008004897
:10037C00000C004880B400AF72B600BFFEE780B43A
:10038C0000AF00BFBD465DF8047B704780B400AF82
:10039C00FEE780B400AFFEE780B400AFFEE780B4A8
:1003AC0000AFFEE780B400AFFEE780B400AF00BF43
:1003BC00BD465DF8047B704780B400AF00BFBD46FE
:1003CC005DF8047B704780B400AF00BFBD465DF89C
:1003DC00047B704780B500AF00F0E8F800BF80BD2B
:1003EC0080B400AF244BD3F88830234A43F4700315
:1003FC00C2F888304FF0B0431B684FF0B04243F066
:10040C00010313604FF0B0434FF4E0229A604FF0B9
:10041C00B0431A684FF0B041184B13400B604FF0CB
:10042C00B043D3F894304FF0B04223F00503C2F838
:10043C0094304FF0B043D3F898304FF0B04223F0E3
:10044C000103C2F898304FF0B0430D4ADA604FF018
:10045C00B0430B4A1A614FF0B0431B684FF0B042E7
:10046C0023F4802313604FF0B04300229A6100BF45
:10047C00BD465DF8047B704700ED00E0FBFEF6FA2C
:10048C0000100422D458C4500433C4188C42F9D33D
:10049C007047036004308842FBD370470C48854694
:1004AC00FFF79EFF0B480C490C4A0023FFF7EDFFAA
:1004BC000B480C490C4A0023FFF7E7FF0B480C498B
:1004CC000023FFF7E8FF02F0D7F8FFF76BFEFEE71B
:1004DC0000000320080000201400002098270008CA
:1004EC000000032000000320A427000814000020B3
:1004FC0034000020FEE7000080B582B000AF00237E
:10050C00FB710C4B1B680B4A43F480731360032084
:10051C0000F04EF9002000F00FF80346002B02D03B
:10052C000123FB7101E0FFF72AFFFB79184608371E
:10053C00BD4680BD0040005880B584B000AF7860E7
:10054C000023FB73174B1B78002B24D001F0A0FB6E
:10055C000246144B1B7819464FF47A73B3FBF1F334
:10056C00B2FBF3F3184600F048F90346002B0FD109
:10057C007B680F2B09D8002279684FF0FF3000F010
:10058C0022F9094A7B68136007E00123FB7304E03E
:10059C000123FB7301E00123FB73FB7B184610372F
:1005AC00BD4680BD100000200C00002080B400AFC0
:1005BC00064B1B781A46064B1B681344044A1360FF
:1005CC0000BFBD465DF8047B704700BF10000020E3
:1005DC003000002080B400AF034B1B681846BD46AA
:1005EC005DF8047B704700BF3000002080B400AF82
:1005FC00034B1B681846BD465DF8047B704700BF73
:10060C000C00002080B584B000AF7860FFF7E2FFEB
:10061C00B8607B68FB60FB68B3F1FF3F05D00A4B09
:10062C001B781A46FB681344FB6000BFFFF7D2FF30
:10063C000246BB68D31AFA689A42F7D800BF00BFCB
:10064C001037BD4680BD00BF1000002080B485B0BF
:10065C0000AF78607B6803F00703FB600C4BDB6832
:10066C00BB60BA684FF6FF031340BB60FB681A020D
:10067C00BB68134343F0BF6343F40033BB60044ACD
:10068C00BB68D36000BF1437BD465DF8047B704770
:10069C0000ED00E080B400AF044BDB681B0A03F0F4
:1006AC0007031846BD465DF8047B704700ED00E07B
:1006BC0080B483B000AF03463960FB7197F9073003
:1006CC00002B0ADB3B68DAB20C4997F907301201B0
:1006DC00D2B20B4483F800230AE03B68DAB2084933
:1006EC00FB7903F00F03043B1201D2B20B441A76D0
:1006FC0000BF0C37BD465DF8047B704700E100E09D
:10070C0000ED00E080B489B000AFF860B9607A60A9
:10071C00FB6803F00703FB61FB69C3F10703042BC0
:10072C0028BF0423BB61FB690433062B02D9FB6988
:10073C00033B00E000237B614FF0FF32BB6902FA00
:10074C0003F3DA43BB681A407B699A404FF0FF31E0
:10075C007B6901FA03F3D9437B680B4013431846BA
:10076C002437BD465DF8047B7047000080B582B02D
:10077C0000AF78607B68013BB3F1807F01D301232C
:10078C000FE00A4A7B68013B53600F214FF0FF30AA
:10079C00FFF78EFF054B00229A60044B07221A606C
:1007AC00002318460837BD4680BD00BF10E000E0AE
:1007BC0080B582B000AF78607868FFF747FF00BF64
:1007CC000837BD4680BD80B586B000AF0346B96022
:1007DC007A60FB73FFF75EFF78617A68B9687869B5
:1007EC00FFF790FF024697F90F3011461846FFF7B6
:1007FC005FFF00BF1837BD4680BD80B582B000AF2B
:10080C0078607868FFF7B2FF034618460837BD4694
:10081C0080BD000080B487B000AF786039600023E1
:10082C007B614CE13B681A6801217B6901FA03F397
:10083C001340FB60FB68002B00F03E813B685B685B
:10084C0003F00303012B05D03B685B6803F0030343
:10085C00022B30D17B689B683B617B695B00032278
:10086C0002FA03F3DB433A6913403B613B68DA68F5
:10087C007B695B0002FA03F33A6913433B617B68C3
:10088C003A699A607B685B683B6101227B6902FA7A
:10089C0003F3DB433A6913403B613B685B681B091C
:1008AC0003F001027B6902FA03F33A6913433B61DB
:1008BC007B683A695A603B685B6803F00303032B5F
:1008CC0017D07B68DB683B617B695B00032202FA13
:1008DC0003F3DB433A6913403B613B689A687B69DD
:1008EC005B0002FA03F33A6913433B617B683A6994
:1008FC00DA603B685B6803F00303022B23D17B694E
:10090C00DA087B68083253F822303B617B6903F0CC
:10091C0007039B000F2202FA03F3DB433A691340EF
:10092C003B613B681A697B6903F007039B0002FA81
:10093C0003F33A6913433B617B69DA087B6808323D
:10094C00396943F822107B681B683B617B695B004B
:10095C00032202FA03F3DB433A6913403B613B6821
:10096C005B6803F003027B695B0002FA03F33A69EC
:10097C0013433B617B683A691A603B685B6803F41C
:10098C004033002B00F09880544A7B699B0802335B
:10099C0052F823303B617B6903F003039B000F2269
:1009AC0002FA03F3DB433A6913403B617B68B3F112
:1009BC00904F19D07B684A4A934213D07B68494ABE
:1009CC0093420DD07B68484A934207D07B68474AD4
:1009DC00934201D1042308E0072306E0032304E03B
:1009EC00022302E0012300E000237A6902F00302F3
:1009FC00920093403A6913433B6138497B699B08E9
:100A0C0002333A6941F82320394B1B683B61FB6880
:100A1C00DB433A6913403B613B685B6803F480132A
:100A2C00002B03D03A69FB6813433B61304A3B69A6
:100A3C0013602F4B5B683B61FB68DB433A691340E7
:100A4C003B613B685B6803F40013002B03D03A69ED
:100A5C00FB6813433B61264A3B695360244BD3F834
:100A6C0080303B61FB68DB433A6913403B613B6878
:100A7C005B6803F48033002B03D03A69FB681343A3
:100A8C003B611B4A3B69C2F88030194BD3F8843068
:100A9C003B61FB68DB433A6913403B613B685B6835
:100AAC0003F40033002B03D03A69FB6813433B611A
:100ABC000F4A3B69C2F884307B6901337B613B6828
:100ACC001A687B6922FA03F3002B7FF4ABAE00BFEC
:100ADC0000BF1C37BD465DF8047B70470000014029
:100AEC000004004800080048000C004800100048B2
:100AFC000008005880B483B000AF78600B467B8050
:100B0C0013467B707B78002B03D07A887B689A61C4
:100B1C0002E07A887B689A6200BF0C37BD465DF8AC
:100B2C00047B704780B485B000AF78600B467B8047
:100B3C007B685B69FB607A88FB6813401A04FB686E
:100B4C00D9437B880B401A437B689A6100BF1437EA
:100B5C00BD465DF8047B704780B400AF054B1B6845
:100B6C00044A43F48073136000BFBD465DF8047BF8
:100B7C00704700BF0004005880B400AF044B1B68E2
:100B8C0003F4C0631846BD465DF8047B704700BF94
:100B9C000004005880B400AF4FF0B0431B6803F45E
:100BAC008013B3F5801F01D1012300E00023184608
:100BBC00BD465DF8047B704780B400AF4FF0B04386
:100BCC001B684FF0B04243F48033136000BFBD4646
:100BDC005DF8047B704780B400AF4FF0B0431B68E6
:100BEC004FF0B04223F48033136000BFBD465DF874
:100BFC00047B704780B400AF4FF0B0431B6803F424
:100C0C000033B3F5003F01D1012300E00023184667
:100C1C00BD465DF8047B704780B400AF4FF0B04325
:100C2C001B684FF0B04243F48073136000BFBD46A5
:100C3C005DF8047B704780B400AF4FF0B0431B6885
:100C4C004FF0B04223F48073136000BFBD465DF8D3
:100C5C00047B704780B400AF4FF0B0431B6803F4C3
:100C6C008063B3F5806F01D1012300E000231846A7
:100C7C00BD465DF8047B704780B483B000AF7860EC
:100C8C004FF0B0435B6823F0FE427B681B064FF0CD
:100C9C00B04113434B6000BF0C37BD465DF8047B7D
:100CAC00704780B400AF4FF0B043D3F898304FF09A
:100CBC00B04243F00103C2F8983000BFBD465DF866
:100CCC00047B704780B400AF4FF0B043D3F898303A
:100CDC004FF0B04223F00103C2F8983000BFBD467C
:100CEC005DF8047B704780B400AF4FF0B043D3F88D
:100CFC00983003F00203022B01D1012300E0002302
:100D0C001846BD465DF8047B704780B400AF4FF0C9
:100D1C00B043D3F890304FF0B04243F00103C2F827
:100D2C00903000BFBD465DF8047B704780B400AFC7
:100D3C004FF0B043D3F890304FF0B04223F00103A2
:100D4C00C2F8903000BFBD465DF8047B704780B49C
:100D5C0000AF4FF0B043D3F890304FF0B04243F0B7
:100D6C000403C2F8903000BFBD465DF8047B7047A9
:100D7C0080B400AF4FF0B043D3F890304FF0B04296
:100D8C0023F00403C2F8903000BFBD465DF8047B2D
:100D9C00704780B400AF4FF0B043D3F8903003F0FD
:100DAC000203022B01D1012300E000231846BD46AB
:100DBC005DF8047B704780B400AF4FF0B043D3F8BC
:100DCC0094304FF0B04243F00103C2F8943000BFAE
:100DDC00BD465DF8047B704780B400AF4FF0B04364
:100DEC00D3F894304FF0B04223F00103C2F89430A2
:100DFC0000BFBD465DF8047B704780B400AF4FF078
:100E0C00B043D3F8943003F00203022B01D1012339
:100E1C0000E000231846BD465DF8047B704780B4A3
:100E2C0000AF4FF0B043D3F894304FF0B04243F0E2
:100E3C000403C2F8943000BFBD465DF8047B7047D4
:100E4C0080B400AF4FF0B043D3F894304FF0B042C1
:100E5C0023F00403C2F8943000BFBD465DF8047B58
:100E6C00704780B400AF4FF0B043D3F8943003F028
:100E7C000803082B01D1012300E000231846BD46CE
:100E8C005DF8047B704780B483B000AF78604FF09E
:100E9C00B043D3F8943023F470627B681B024FF09C
:100EAC00B0411343C1F8943000BF0C37BD465DF818
:100EBC00047B704780B400AF4FF0B0431B684FF019
:100ECC00B04243F00103136000BFBD465DF8047BE4
:100EDC00704780B400AF4FF0B0431B684FF0B04286
:100EEC0023F00103136000BFBD465DF8047B70471F
:100EFC0080B400AF4FF0B0431B6803F00203022B29
:100F0C0001D1012300E000231846BD465DF8047BA7
:100F1C00704780B483B000AF78604FF0B0431B686B
:100F2C0023F0F0024FF0B0417B6813430B6000BF1D
:100F3C000C37BD465DF8047B704780B483B000AFBE
:100F4C004FF0B0431B6803F0F0037B607B68B02B61
:100F5C0001D9B0237B607B6818460C37BD465DF821
:100F6C00047B704780B483B000AF78604FF0B0431F
:100F7C005B6823F47F427B681B024FF0B041134344
:100F8C004B6000BF0C37BD465DF8047B704780B4E6
:100F9C0083B000AF78604FF0B0439B6823F003023E
:100FAC004FF0B0417B6813438B6000BF0C37BD46DC
:100FBC005DF8047B704780B400AF4FF0B0439B6882
:100FCC0003F00C031846BD465DF8047B704780B4F3
:100FDC0083B000AF78604FF0B0439B6823F0F00211
:100FEC004FF0B0417B6813438B6000BF0C37BD469C
:100FFC005DF8047B704780B483B000AF78604FF02D
:10100C00B043D3F8083123F0F0024FF0B0417B68C5
:10101C001343C1F8083100BF0C37BD465DF8047BA3
:10102C00704780B483B000AF78604FF0B043D3F812
:10103C00083123F00F027B681B094FF0B0411343BA
:10104C00C1F8083100BF0C37BD465DF8047B704712
:10105C0080B483B000AF78604FF0B0439B6823F44A
:10106C00E0624FF0B0417B6813438B6000BF0C37DC
:10107C00BD465DF8047B704780B483B000AF7860E8
:10108C004FF0B0439B6823F460524FF0B0417B6843
:10109C0013438B6000BF0C37BD465DF8047B704773
:1010AC0080B400AF4FF0B0439B6803F0F0031846D8
:1010BC00BD465DF8047B704780B400AF4FF0B04381
:1010CC00D3F808311B0103F0F0031846BD465DF858
:1010DC00047B704780B400AF4FF0B0431B684FF0F7
:1010EC00B04243F08073136000BFBD465DF8047BD3
:1010FC00704780B400AF4FF0B0431B684FF0B04264
:10110C0023F08073136000BFBD465DF8047B70470D
:10111C0080B400AF4FF0B0431B6803F00073B3F121
:10112C00007F01D1012300E000231846BD465DF885
:10113C00047B704780B400AF4FF0B043DB681B0AF0
:10114C0003F07F031846BD465DF8047B704780B4FE
:10115C0000AF4FF0B043DB6803F060431846BD4668
:10116C005DF8047B704780B400AF4FF0B043DB6890
:10117C0003F070031846BD465DF8047B704780B4DD
:10118C0000AF4FF0B043DB6803F003031846BD46D5
:10119C005DF8047B704780B400AF4FF0B0439B68A0
:1011AC0003F48033B3F5803F01D1012300E0002329
:1011BC001846BD465DF8047B704780B400AF4FF015
:1011CC00B043D3F8083103F40033B3F5003F01D139
:1011DC00012300E000231846BD465DF8047B7047F0
:1011EC0080B400AF4FF0B043D3F8083103F4803330
:1011FC00B3F5803F01D1012300E000231846BD4622
:10120C005DF8047B704780B400AF4FF0B0439B682F
:10121C0003F40033B3F5003F01D1012300E00023B8
:10122C001846BD465DF8047B704780B400AF4FF0A4
:10123C00B0439B6803F48023B3F5802F01D10123C5
:10124C0000E000231846BD465DF8047B70470000A3
:10125C0090B58DB000AF78607B68002B01D1012375
:10126C0063E37B681B6803F02003002B00F08D8088
:10127C00FFF7A1FEF862FFF782FFB862FB6A002B52
:10128C0005D0FB6A0C2B47D1BB6A012B44D17B6880
:10129C00DB69002B01D1012347E37B685C6AFFF714
:1012AC004CFE03469C4214D97B685B6A184600F0DE
:1012BC0003FD0346002B01D0012336E37B685B6AF8
:1012CC001846FFF726FE7B681B6A1846FFF74AFE96
:1012DC0013E07B685B6A1846FFF71BFE7B681B6A92
:1012EC001846FFF73FFE7B685B6A184600F0E4FC8B
:1012FC000346002B01D0012317E300F0C9FC034681
:10130C00A44A1360A44B1B681846FFF715F9034653
:10131C00002B39D0012308E37B68DB69002B1ED03E
:10132C00FFF7C8FDFFF756F9786208E0FFF752F9AE
:10133C0002467B6AD31A022B01D90323F5E2FFF78D
:10134C00D7FD0346002BF1D07B685B6A1846FFF78C
:10135C00E0FD7B681B6A1846FFF704FE15E0FFF7FB
:10136C00B8FDFFF737F9786208E0FFF733F902466A
:10137C007B6AD31A022B01D90323D6E2FFF7B8FDFF
:10138C000346002BF1D100E000BF7B681B6803F023
:10139C000103002B47D0FFF70EFE3862FFF7EFFE7C
:1013AC00F8613B6A082B05D03B6A0C2B08D1FB6912
:1013BC00032B05D17B685B68002B34D10123B4E28D
:1013CC007B685B68B3F5803F02D1FFF7F5FB01E06A
:1013DC00FFF701FC7B685B68002B12D0FFF7FAF873
:1013EC00786208E0FFF7F6F802467B6AD31A642BA2
:1013FC0001D9032399E2FFF7FDFB0346002BF1D043
:10140C0011E0FFF7E7F8786208E0FFF7E3F802462F
:10141C007B6AD31A642B01D9032386E2FFF7EAFB1C
:10142C000346002BF1D17B681B6803F00203002BF1
:10143C004CD0FFF7C0FDB861FFF7A1FE7861BB6926
:10144C00042B05D0BB690C2B0ED17B69022B0BD165
:10145C007B68DB68002B01D1012366E27B681B698A
:10146C001846FFF709FC31E07B68DB68002B19D0CC
:10147C00FFF7D2FBFFF7AEF8786208E0FFF7AAF8A7
:10148C0002467B6AD31A022B01D903234DE2FFF7E4
:10149C00E1FB0346002BF1D07B681B691846FFF774
:1014AC00EBFB13E0FFF7C7FBFFF794F8786208E05B
:1014BC00FFF790F802467B6AD31A022B01D903235B
:1014CC0033E2FFF7C7FB0346002BF1D17B681B68A7
:1014DC0003F00803002B06D17B681B6803F0100394
:1014EC00002B00F0A3807B685B69002B76D07B68B7
:1014FC001B6803F01003002B46D0FFF77EFC03465D
:10150C00002B13D1FFF757FCFFF764F8786208E063
:10151C00FFF760F802467B6AD31A022B01D903232A
:10152C0003E2FFF76AFC0346002BF1D0FFF777FCD0
:10153C00FFF750F8786208E0FFF74CF802467B6A38
:10154C00D31A032B01D90323EFE1FFF78AFC0346DF
:10155C00002BF1D07B689B691846FFF794FCFFF7D2
:10156C003BFCFFF737F8786208E0FFF733F80246E8
:10157C007B6AD31A022B01D90323D6E1FFF73DFC7A
:10158C000346002BF1D151E0FFF715FCFFF722F8D1
:10159C0078620CE0080000200C000020FFF71AF81D
:1015AC0002467B6AD31A022B01D90323BDE1FFF754
:1015BC0024FC0346002BF1D0FFF742FC08E0FFF7B8
:1015CC0009F802467B6AD31A032B01D90323ACE139
:1015DC00FFF747FC0346002BF1D127E0FFF730FC67
:1015EC00FEF7F8FF786208E0FEF7F4FF02467B6A2C
:1015FC00D31A032B01D9032397E1FFF732FC0346DF
:10160C00002BF1D1FFF7E8FBFEF7E4FF786208E06E
:10161C00FEF7E0FF02467B6AD31A022B01D90323A3
:10162C0083E1FFF7EAFB0346002BF1D17B681B68D3
:10163C0003F00403002B5BD0A74B1B6803F48073EF
:10164C00002B14D1FFF788FAFEF7C4FF786208E08C
:10165C00FEF7C0FF02467B6AD31A022B01D9032383
:10166C0063E19D4B1B6803F48073002BF0D07B6807
:10167C009B68012B02D1FFF748FB0CE07B689B6851
:10168C00052B04D1FFF763FBFFF73FFB03E0FFF7EC
:10169C004DFBFFF76DFB7B689B68002B14D0FEF7AE
:1016AC0099FF78620AE0FEF795FF02467B6AD31A2F
:1016BC0041F28832934201D9032336E1FFF769FBEB
:1016CC000346002BEFD013E0FEF784FF78620AE0AC
:1016DC00FEF780FF02467B6AD31A41F288329342AE
:1016EC0001D9032321E1FFF754FB0346002BEFD173
:1016FC007B681B6803F04003002B2CD07B689B6A33
:10170C00002B14D0FFF7CDFAFEF764FF786208E0E7
:10171C00FEF760FF02467B6AD31A022B01D9032322
:10172C0003E1FFF7E0FA0346002BF1D013E0FFF7DB
:10173C00C9FAFEF74FFF786208E0FEF74BFF02464E
:10174C007B6AD31A022B01D90323EEE0FFF7CBFA05
:10175C000346002BF1D17B68DB6A002B00F0E480A0
:10176C00FFF729FC38614FF0B043DB68FB607B6806
:10177C00DB6A022B40F0B480FB6803F003027B6849
:10178C001B6B9A4223D1FB6803F070027B685B6B86
:10179C009A421CD1FB681B0A03F07F027B689B6B8F
:1017AC009A4214D1FB6803F478127B68DB6B9A4283
:1017BC000DD1FB6803F060627B681B6C9A4206D10A
:1017CC00FB6803F060427B685B6C9A425DD03B69BE
:1017DC000C2B58D04FF0B0431B6803F08063002BE8
:1017EC0001D00123A1E0FFF784FCFEF7F3FE786241
:1017FC0008E0FEF7EFFE02467B6AD31A022B01D9F2
:10180C00032392E04FF0B0431B6803F00073002BEE
:10181C00EFD14FF0B043DA68304B13407A68116B5C
:10182C007A68526B11437A68926B120211437A6890
:10183C00D26B11437A68126C11437A68526C0A436A
:10184C004FF0B0411343CB60FFF744FC4FF0B04373
:10185C00DB684FF0B04243F08053D360FEF7BAFE22
:10186C00786208E0FEF7B6FE02467B6AD31A022BBA
:10187C0001D9032359E04FF0B0431B6803F0007308
:10188C00002BEFD050E001234FE04FF0B0431B682A
:10189C0003F00073002B47D1FFF71CFC4FF0B04353
:1018AC00DB684FF0B04243F08053D360FEF792FEFA
:1018BC00786208E0FEF78EFE02467B6AD31A022B92
:1018CC0001D9032331E04FF0B0431B6803F00073E0
:1018DC00002BEFD028E000BF000400588C80C11111
:1018EC003B690C2B1ED0FFF704FCFEF773FE7862ED
:1018FC0008E0FEF76FFE02467B6AD31A022B01D971
:10190C00032312E04FF0B0431B6803F00073002B6D
:10191C00EFD14FF0B043DA684FF0B041054B1340B4
:10192C00CB6001E0012300E0002318463437BD46AC
:10193C0090BD00BFFCFFFEEE80B584B000AF7860B8
:10194C0039607B68002B01D101232DE1984B1B687A
:10195C0003F007033A689A421BD9954B1B6823F096
:10196C00070293493B6813430B60FEF733FEF860A4
:10197C0008E0FEF72FFE0246FB68D31A022B01D9B2
:10198C00032311E18A4B1B6803F007033A689A4260
:10199C00EFD17B681B6803F00203002B16D07B6829
:1019AC009B681846FFF713FBFEF714FEF86008E07F
:1019BC00FEF710FE0246FB68D31A022B01D9032353
:1019CC00F2E0FFF7E8FB0346002BF1D07B681B68C5
:1019DC0003F02003002B16D07B685B691846FFF7D9
:1019EC000AFBFEF7F7FDF86008E0FEF7F3FD024690
:1019FC00FB68D31A022B01D90323D5E0FFF7DDFBDB
:101A0C000346002BF1D07B681B6803F04003002BCE
:101A1C0016D07B689B691846FFF703FBFEF7DAFDCF
:101A2C00F86008E0FEF7D6FD0246FB68D31A022BDD
:101A3C0001D90323B8E0FFF7D3FB0346002BF1D009
:101A4C007B681B6803F00403002B16D07B68DB68F3
:101A5C001846FFF7FDFAFEF7BDFDF86008E0FEF74B
:101A6C00B9FD0246FB68D31A022B01D903239BE074
:101A7C00FFF7C9FB0346002BF1D07B681B6803F012
:101A8C000803002B17D07B681B69DB001846FFF797
:101A9C00F3FAFEF79FFDF86008E0FEF79BFD0246A7
:101AAC00FB68D31A022B01D903237DE0FFF7BDFBA2
:101ABC000346002BF1D07B681B6803F00103002B5D
:101ACC0043D07B685B68022B06D1FFF793F8034683
:101ADC00002B1ED1012367E07B685B68032B06D1CA
:101AEC00FFF716FB0346002B13D101235CE07B6848
:101AFC005B68002B06D1FFF7FBF90346002B08D1DE
:101B0C00012351E0FFF7A6F80346002B01D1012376
:101B1C004AE07B685B681846FFF739FAFEF75AFD16
:101B2C00F8600AE0FEF756FD0246FB68D31A41F254
:101B3C008832934201D9032336E0FFF73CFA024680
:101B4C007B685B689B009A42ECD1194B1B6803F0D5
:101B5C0007033A689A421BD2154B1B6823F0070205
:101B6C0013493B6813430B60FEF734FDF86008E043
:101B7C00FEF730FD0246FB68D31A022B01D9032372
:101B8C0012E00B4B1B6803F007033A689A42EFD143
:101B9C0000F07EF80346074A1360FEF727FD034664
:101BAC001846FEF7C9FC034618461037BD4680BDE3
:101BBC00004000580800002090B585B000AFFFF73A
:101BCC00FAF978607B68002B0AD1FFF7B6F9034667
:101BDC001B0903F00F032B4A52F82330FB604BE038
:101BEC007B68042B02D1284BFB6045E07B68082BFB
:101BFC000AD1FEF7CFFF0346012B02D1224BFB602B
:101C0C003AE0224BFB6037E0FFF7B9FA38603B68EB
:101C1C00022B03D03B68032B03D00DE01A4BBB60A7
:101C2C0015E0FEF7B7FF0346012B02D1164BBB6044
:101C3C000DE0164BBB600AE0FFF77FF903461B096A
:101C4C0003F00F030F4A52F82330BB6000BFFFF7BD
:101C5C0071FA0246BB6803FB02F4FFF784FA0346F1
:101C6C001B090133B4FBF3F4FFF771FA03465B0F66
:101C7C000133B4FBF3F3FB60FB6818461437BD4625
:101C8C0090BD00BF502700080024F4000048E80174
:101C9C0098B500AFFFF790FF0446FFF701FA034633
:101CAC001B0903F00F03034A52F82330B4FBF3F380
:101CBC00184698BD1027000890B585B000AF786025
:101CCC007B68B02B03D9154BDB6AFB6007E07B68A4
:101CDC001B0903F00F03114A52F82330FB60FFF786
:101CEC00EBF903461B0903F00F030D4A52F823309E
:101CFC00FA68B2FBF3F3BB60BB680A4AA2FB03238E
:101D0C009C0CFEF739FF03461946204600F00CF8F0
:101D1C00034618461437BD4690BD00BF5027000837
:101D2C001027000883DE1B4390B593B000AF78609A
:101D3C003960374B07F128040FCB84E80F00354A84
:101D4C0007F11C0307CA83E80700334B07F10C04A7
:101D5C000FCB84E80F0000237B643B68B3F5007F56
:101D6C001AD100233B6413E03B6C9B0048333B448B
:101D7C0053F8203C7A689A4207D83B6C9B00483356
:101D8C003B4453F83C3C7B6420E03B6C01333B64AC
:101D9C003B6C032BE8D919E00023FB6313E0FB6BCE
:101DAC009B0048333B4453F82C3C7A689A4207D842
:101DBC00FB6B9B0048333B4453F83C3C7B6405E095
:101DCC00FB6B0133FB63FB6B022BE8D9134B1B68DA
:101DDC0023F0070211497B6C13430B60FEF7FAFBEF
:101DEC00B86308E0FEF7F6FB0246BB6BD31A022B76
:101DFC0001D9032307E0094B1B6803F007037A6C36
:101E0C009A42EFD1002318464C37BD4690BD00BF17
:101E1C00E4260008F42600080027000800400058BB
:101E2C0080B400AF4FF0B043D3F8903003F001030F
:101E3C00012B01D1012300E000231846BD465DF8BB
:101E4C00047B704780B400AF4FF0B043D3F89030B0
:101E5C0003F00203022B01D1012300E000231846FA
:101E6C00BD465DF8047B704780B483B000AF7860EA
:101E7C004FF0B043D3F8943023F440424FF0B041CC
:101E8C007B681343C1F8943000BF0C37BD465DF836
:101E9C00047B704780B483B000AF78604FF0B043E0
:101EAC005B6A23F003024FF0B0417B6813434B6233
:101EBC0000BF0C37BD465DF8047B704780B483B01F
:101ECC0000AF78604FF0B0435B6A23F030024FF004
:101EDC00B0417B6813434B6200BF0C37BD465DF8C5
:101EEC00047B704780B483B000AF78604FF0B04390
:101EFC00D3F8883023F003024FF0B0417B681343D2
:101F0C00C1F8883000BF0C37BD465DF8047B7047C4
:101F1C0080B483B000AF78604FF0B043D3F8883012
:101F2C0023F440624FF0B0417B681343C1F8883012
:101F3C0000BF0C37BD465DF8047B704780B483B09E
:101F4C0000AF78604FF0B043D3F888207B681B0952
:101F5C0003F47F23DB431A407B681B0103F47F23CC
:101F6C004FF0B0411343C1F8883000BF0C37BD4669
:101F7C005DF8047B704780B483B000AF78604FF09D
:101F8C00B043D3F888207B681B0C1B04DB431A403E
:101F9C007B681B044FF0B0411343C1F8883000BF7D
:101FAC000C37BD465DF8047B704780B483B000AF3E
:101FBC0078604FF0B043D3F8883023F440024FF0F0
:101FCC00B0417B681343C1F8883000BF0C37BD4665
:101FDC005DF8047B704780B483B000AF78604FF03D
:101FEC00B043D3F8883023F040424FF0B0417B68C7
:101FFC001343C1F8883000BF0C37BD465DF8047B35
:10200C00704780B483B000AF78604FF0B043D3F822
:10201C00883023F040624FF0B0417B681343C1F825
:10202C00883000BF0C37BD465DF8047B704780B527
:10203C0082B000AF78607868FFF7E3FF00BF083725
:10204C00BD4680BD80B483B000AF78604FF0B04324
:10205C00D3F8883023F040524FF0B0417B681343E3
:10206C00C1F8883000BF0C37BD465DF8047B704763
:10207C0080B483B000AF78604FF0B043D3F89030A9
:10208C0023F440724FF0B0417B681343C1F8903099
:10209C0000BF0C37BD465DF8047B704780B400AFC1
:1020AC004FF0B043D3F8903003F440731846BD465C
:1020BC005DF8047B704780B400AF4FF0B043D3F8A9
:1020CC0090304FF0B04243F48033C2F8903000BFF0
:1020DC00BD465DF8047B704780B400AF4FF0B04351
:1020EC00D3F890304FF0B04223F48033C2F89030E4
:1020FC0000BFBD465DF8047B704780B400AF4FF065
:10210C00B0431B684FF0B04243F08063136000BFD4
:10211C00BD465DF8047B704780B400AF4FF0B04310
:10212C001B684FF0B04223F08063136000BFBD46C4
:10213C005DF8047B704780B400AF4FF0B0431B6870
:10214C0003F00063B3F1006F01D1012300E0002321
:10215C001846BD465DF8047B704780B588B000AF6B
:10216C0078600023FB770023BB777B681B6803F048
:10217C004003002B34D07B681B6BB3F5400F21D090
:10218C00B3F5400F1BD8B3F5000F1DD0B3F5000FFE
:10219C0015D8002B0BD0B3F5800F10D14FF0B043F6
:1021AC00DB684FF0B04243F48033D3600DE07B68C2
:1021BC000433184600F047F90346FB7705E001238A
:1021CC00FB7702E000BF00E000BFFB7F002B05D1D6
:1021DC007B681B6B1846FFF7E8FE01E0FB7FBB77C3
:1021EC007B681B6803F40063002B46D0FFF756FF97
:1021FC00B8617B681B6CBA699A423CD0FEF7ACFCA8
:10220C00BB69002B05D17B681B6C1846FFF730FFB0
:10221C002EE04FF0B043D3F890307B61FFF74BFFCB
:10222C00FFF75AFF7B6923F440727B681B6C1343E6
:10223C007B614FF0B0427B69C2F89030FFF7F0FD44
:10224C000346012B14D1FEF7C5F938610BE0FEF7FC
:10225C00C1F902463B69D31A41F28832934202D942
:10226C000323FB7704E0FFF7EDFD0346012BEED1D2
:10227C00FB7FBB7701E0FB7FBB777B681B6803F0C0
:10228C000103002B04D07B689B691846FFF72AFEDC
:10229C007B681B6803F00203002B04D07B68DB69AE
:1022AC001846FFF735FE7B681B6803F01003002B04
:1022BC0004D07B689B6A1846FFF75DFE7B681B6841
:1022CC0003F02003002B04D07B68DB6A1846FFF771
:1022DC0052FE7B681B6803F00403002B04D07B6860
:1022EC001B6A1846FFF72AFE7B681B6803F008037D
:1022FC00002B04D07B685B6A1846FFF71FFE7B68D7
:10230C001B6803F48073002B22D07B685B6B184630
:10231C00FFF78DFE7B685B6BB3F1006F07D14FF05D
:10232C00B043DB684FF0B04243F08073D3607B68FE
:10233C005B6BB3F1806F0BD17B680433184600F0F4
:10234C00DDF80346FB77FB7F002B01D0FB7FBB77CF
:10235C007B681B6803F40073002B2BD07B689B6B92
:10236C00B3F1804F08D07B689B6BB3F1004F03D067
:10237C007B689B6B002B05D17B689B6B1846FFF72A
:10238C002AFE0AE07B689B6B23F08053FB600020E5
:10239C00FFF721FEF868FFF734FE7B689B6BB3F107
:1023AC00C05F07D14FF0B043DB684FF0B04243F051
:1023BC008073D3607B681B6803F48063002B22D08E
:1023CC007B68DB6B1846FFF73DFE7B68DB6BB3F17C
:1023DC00005F07D14FF0B043DB684FF0B04243F4DD
:1023EC008033D3607B68DB6BB3F1805F0BD17B6890
:1023FC000433184600F0DDF80346FB77FB7F002B17
:10240C0001D0FB7FBB777B681B6803F48053002BE8
:10241C0004D07B685B6C1846FFF726FD7B681B6855
:10242C0003F40053002B09D07B68DB6C1846FFF7D4
:10243C0045FD7B689B6C1846FFF72CFDBB7F18464F
:10244C002037BD4680BD80B584B000AF78600023D6
:10245C00FB73FFF761FEFEF7BDF8B86009E0FEF70D
:10246C00B9F80246BB68D31A022B02D90323FB73BB
:10247C0004E0FFF760FE0346002BF0D1FB7B002B42
:10248C0037D14FF0B0431B6923F4FE427B681B68C5
:10249C001B024FF0B04113430B614FF0B0431B696B
:1024AC0023F478127B685B684FF0B04113430B61E7
:1024BC00FFF723FEFEF78EF8B86009E0FEF78AF806
:1024CC000246BB68D31A022B02D90323FB7304E028
:1024DC00FFF731FE0346012BF0D1FB7B002B08D11B
:1024EC004FF0B0431A697B681B694FF0B04113433E
:1024FC000B61FB7B18461037BD4680BD80B584B0A0
:10250C0000AF78600023FB73FFF706FEFEF762F85E
:10251C00B86009E0FEF75EF80246BB68D31A022BDE
:10252C0002D90323FB7304E0FFF705FE0346002BDF
:10253C00F0D1FB7B002B37D14FF0B0431B6923F458
:10254C00FE427B681B681B024FF0B04113430B61CA
:10255C004FF0B0431B6923F060627B689B684FF0BF
:10256C00B04113430B61FFF7C8FDFEF733F8B860B9
:10257C0009E0FEF72FF80246BB68D31A022B02D9EA
:10258C000323FB7304E0FFF7D6FD0346012BF0D1C8
:10259C00FB7B002B08D14FF0B0431A697B681B6999
:1025AC004FF0B04113430B61FB7B18461037BD460F
:1025BC0080BD80B584B000AF78600023FB73FFF75B
:1025CC00ABFDFEF707F8B86009E0FEF703F802462A
:1025DC00BB68D31A022B02D90323FB7304E0FFF769
:1025EC00AAFD0346002BF0D1FB7B002B37D14FF01B
:1025FC00B0431B6923F4FE427B681B681B024FF03F
:10260C00B04113430B614FF0B0431B6923F06042A0
:10261C007B68DB684FF0B04113430B61FFF76DFD36
:10262C00FDF7D8FFB86009E0FDF7D4FF0246BB68A0
:10263C00D31A022B02D90323FB7304E0FFF77BFDB3
:10264C000346012BF0D1FB7B002B08D14FF0B0439C
:10265C001A697B681B694FF0B04113430B61FB7B1C
:10266C0018461037BD4680BD02440346934200D144
:10267C00704703F8011BF9E770B50D4D0D4C641B49
:10268C00A4100026A64209D10B4D0C4C00F018F8F2
:10269C00641BA4100026A64205D170BD55F8043B5E
:1026AC0098470136EEE755F8043B98470136F2E7B8
:1026BC00902700089027000890270008942700080E
:1026CC00F8B500BFF8BC08BC9E467047F8B500BF13
:0826DC00F8BC08BC9E467047E3
:1026E400120000002400000036000000400000003A
:1026F400060000000C0000001000000000000000B4
:1027040001000000020000000300000001000000BE
:1027140003000000050000000100000001000000AB
:10272400060000000A000000200000000200000073
:102734000400000008000000100000004000000039
:10274400800000000001000000020000A0860100DB
:10275400400D0300801A060000350C0040420F00B3
:1027640080841E0000093D0000127A000024F40059
:1027740000366E010048E801006CDC020000000035
:0C27840000000000000000000000000049
:0427900061010008DB
:042794003D010008FB
:0C27980000093D001000000001000000DE
:04000005080004A942
:00000001FF
